:020000040000FA
:10000000008000102D0200003502000037020000C1
:10001000390200003B0200003D0200000000000029
:100020000000000000000000000000006903000064
:100030004102000000000000E10300001D04000078
:10004000470200004702000047020000470200008C
:10005000470200004702000047020000470200007C
:10006000470200004702000047020000470200006C
:10007000470200004702000047020000470200005C
:10008000470200004702000047020000470200004C
:10009000470200004702000047020000470200003C
:1000A000470200004702000047020000470200002C
:1000B000470200004702000047020000470200001C
:1000C0004702000000F002F800F096F80AA090E85D
:1000D000000C82448344AAF10107DA4501D100F003
:1000E0008BF8AFF2090EBAE80F0013F0010F18BF3A
:1000F000FB1A43F001031847686D0000886D00008B
:10010000103A24BF78C878C1FAD8520724BF30C843
:1001100030C144BF04680C60704700000023002415
:1001200000250026103A28BF78C1FBD8520728BF07
:1001300030C148BF0B6070476E2900F05D877029A1
:1001400000F01F82662906F0D182652906F0CE8272
:10015000672906F0CB82612906F0CA8203681B0A70
:1001600028BF41F08001692900F00A87642900F066
:100170000787752900F004876F2901F02C80782902
:1001800000F0EB81E92900F0C787E42900F0C4877B
:10019000F52900F0C187EF2901F02980F82900F046
:1001A000EA810368DB0928BF41F08001632901F07F
:1001B0007187732901F07687E32901F0A187F3297C
:1001C00001F0A687002070471FB59DE8030000F0EE
:1001D000E3FD02F0D5F904000020002106F060F9EB
:1001E000401C60600020002106F044F9E06001F04E
:1001F00061FA00F091FD1FBD03F08CFA084B094C29
:100200001860226003F006FB04F060F805F018FEA9
:100210000548002104F0AAF904F08CF8FEE700007C
:100220004C010010500100103801001006488047B2
:1002300006480047FEE7FEE7FEE7FEE7FEE7FEE7CB
:10024000FEE7FEE7FEE7FEE7652F0000C5000000C1
:10025000004870470C1400100B3020F00700704766
:100260002DE9F04117460E460446FFF7F5FFA04280
:10027000054633D9002F1CBF06F10C0003F086FAA7
:1002800030467468F4B12168A94217D305F1080219
:1002900091423CBF6168416007D3626861194A605E
:1002A0002268521B0A6041602560002F1CBF06F1C6
:1002B0000C0003F0A1FA201DBDE8F081204664681F
:1002C000002CE0D12946304600F052FD0028D7D15D
:1002D000002F1CBF06F10C0003F08EFA0020BDE8D1
:1002E000F08110B5044600F03AFD01682046BDE8F3
:1002F00010400122B4E7704770477047FFFFFFFFCF
:1003000080F309887047EFF309807047684680F3EF
:10031000098804480078C00714BF0220032080F336
:1003200014887047B4680000DFF818C0EFF3058345
:100330001B0618BF6047EFF31483DB0708BF604755
:1003400000DF7047B5480000DFF818C0EFF3058301
:100350001B0618BF6047EFF31483DB0708BF604735
:1003600000DF7047A14A0000EFF30980816911F8AE
:10037000021CF1B990E80F10E047EFF3098C8CE80C
:100380000700144B93E8060091420FD039B12CE9D5
:10039000F00FC1F82CC00CB404F0DAFF0CBC1A60EA
:1003A000D2F82CC0BCE8F00F8CF309886FF0020E75
:1003B000704710B5084A1268914209D8074C54F8A2
:1003C000214090E80F10A047EFF3098C8CE80F0054
:1003D00010BD0000100100104C2F00004C2F000039
:1003E00004F048FE0C4B93E80600914210D0EFF366
:1003F000098C2CE9F00FC1F82CC00CB404F0A8FF54
:100400000CBC1A60D2F82CC0BCE8F00F8CF3098841
:100410006FF0020E704700001001001005F084F824
:10042000E0E7000004F032F905F07EF8DAE70000BA
:1004300070B516460D46041F002808BF70BD002E7B
:100440001CBF05F10C0003F0A1F92B4658680028E9
:1004500018BFA04238BF0346F8D31968CA18A24291
:1004600018BF5C6003D122681C46114419602168E2
:100470000A19824218BF606004D142686260006855
:1004800008442060002E1CBF05F10C0003F0B4F9F5
:1004900070BD10B5044600F062FC01682046BDE85E
:1004A00010400122C4E700001CB50C46064B7B44FB
:1004B00069460090204600F0B8FD044600206946D9
:1004C00000F0C6FD20461CBD9F0B00000B460146F8
:1004D000184601F0EBBD00000FB41CB5084B06AA8E
:1004E0007B4469460090059800F09FFD044600207B
:1004F000694600F0ADFD20461CBC5DF814FB000011
:100500006D0B0000F0B40D460188090502D5214CA1
:100510007C4402E01F4C7C440E34002100F1240690
:1005200008E002F00F071209E75D42EA03721B09B7
:100530007754491C52EA0307F3D1027800231207CB
:1005400004D5702D06D009B1022311342246F0BC27
:1005500000F0BCBC01231034F8E770B504460D462A
:100560002146106800F080FC024629462046BDE87E
:1005700070400023C6E7D21D22F00703D3E9002311
:10058000C0E70368126843F0200303600823C361D7
:100590000023B7E7006400002DE9F05F89460446B8
:1005A0004FF0000ADFF874B1FB44C0F820A02046E9
:1005B000E1688847002874D0252806D0D4E90121B5
:1005C0009047206A401C2062F1E700265F462046E3
:1005D000E16888472028054607DB312D05D27819C8
:1005E00010F8200C08B10643F1E7B00701D526F05A
:1005F0000406C4F81CA00027C4F818A02A2D09D0AE
:10060000284603F0BBF838B304EB8708303DC8F840
:10061000185019E059F8041B204604EB8702916139
:10062000E1688847012F054618D1E069002820DAE3
:1006300026F020061DE0D8F8180000EB800005EB3E
:1006400040003038C8F818002046E1688847054661
:1006500003F094F80028EED1012F0AD02E2D08D1F6
:100660002046E16888477F1C0546022F46F0200699
:10067000C4DBA069002803DA404246F00106A0610D
:10068000F00701D026F010066C2D0BD0682D09D094
:100690004C2D39D06A2D35D0742D35D07A2D33D0EC
:1006A00016E038E0E1682F4620468847B842054604
:1006B00009D16C2F26D04FF48060E16806432046B4
:1006C0008847054604E06C2F1AD04FF4807006432B
:1006D0000DB3A5F14100192802D8203546F4006673
:1006E0004A462946204626604E46FFF725FD80B142
:1006F00001280BD0F61D26F0070000F1080956E787
:100700004020E4E78020D8E70020D6E706F104097E
:100710004DE7284652E7206ABDE8F09F906300004D
:100720000FB400B58DB010A9099000910B904FF057
:10073000FF300A9000200C90064878440690064846
:1007400078446A4607900F9909A800F06FFD0DB034
:100750005DF814FB0F0B0000270B00002DE9FF5F75
:100760001D464FF0FF3B91464FF000085F46D5E92C
:100770000146A96901987F1C8847296A82468847F3
:100780000028F6D1BAF1FF3F0CD0002E24F4C0644B
:1007900019DD600614D5BAF12B0F09D0BAF12D0F6F
:1007A0000ED103E0584604B0BDE8F09F44F48064E5
:1007B000A96901987F1C8847761E8246002E02DDBB
:1007C000BAF1300F03D0B9F1000F26D032E0A96999
:1007D000761E01987F1C44F400748847002E8246E0
:1007E00005DDBAF1780F06D0BAF1580F03D0B9F190
:1007F000000F10D01EE0B9F1000F02D0B9F1100FB8
:1008000018D1A969761E01987F1C24F400748847CA
:100810008246102002E0082000E00A20814609E01C
:10082000A96908FB0908761E01987F1C44F400742E
:1008300088478246002E05DD4946504600F0E2FC1E
:100840000028EDDAE96901988847A00502D46FF025
:100850000100A8E7E00725D1600613D5600502D5A1
:10086000C8F1000000E0404629680A1D2A600968B6
:10087000220501D5087015E0220701D5088011E096
:1008800008600FE02868011D29600068210502D575
:1008900080F8008006E0210702D5A0F8008001E082
:1008A000C0F8008038467EE711B14FF4807201E055
:1008B0004FF480624FF4007300F0C8BE2DE9F0479A
:1008C00004464FF000094FF0FF37C568D4E90486AD
:1008D000A80707D0204600F075FE304602F09EFFC4
:1008E000002802DA3846BDE8F087280502D54046E0
:1008F000FFF7CFFD4C21204600F0A6F9206D20F037
:10090000010020654846EEE770B505460A4E3046C0
:1009100002F03CFF05F14C04204602F037FF284668
:10092000FFF7CCFF0546204602F066FF304602F096
:1009300063FF284670BD0000980100102DE9F041CA
:10094000044600F14C07384602F020FFE0688107BA
:1009500012D0800601D5A66A04E0A1696068084447
:100960002169461A204600F02DFE00220546314638
:10097000204600F077FD00E00025384602F03CFFFD
:100980002846BDE8F0812DE9F04118B1BDE8F041FD
:10099000FFF7D4BF0B4E0025304602F0F7FE0A4C9D
:1009A0006F1E07E02046FFF7C9FF00B13D46206DEE
:1009B00020F00104002CF5D1304602F01DFF28463E
:1009C000DFE70000980100106C1400102DE9F047DB
:1009D00016468846814602F14C07384602F0D6FE9C
:1009E0003046FFF76BFF18F8010B61280AD0722818
:1009F00002D077283FD102E00125002405E002253E
:100A0000042402E0082448F2020518F8010B2B2800
:100A100006D0622809D018F8010C74280AD00BE01F
:100A200045F0030544F00204EFE745F0040544F007
:100A30000104EAE744F010044846214602F02CFF86
:100A4000411C18D00021316171604FF40071F560D4
:100A5000F1617061200704D530460222002100F0C8
:100A600001FD306D40F001003065384602F0C4FEF3
:100A70003046BDE8F0870026F7E72DE9F04115463E
:100A80000E460746204C204602F080FE2A4631469C
:100A90003846FFF79BFF0546204602F0ADFE28468C
:100AA000BDE8F0812DE9F0410E468046164D2846FE
:100AB00002F06CFE154C206DC10704D0410804D033
:100AC00020F00104F7E7224612E05420FFF709FC6A
:100AD000070017D0206D47F001010843542120651D
:100AE000384600F0B1F807F14C0002F05FFE3A46DC
:100AF00031464046FFF76AFF0446284602F07CFE76
:100B00002046CDE70024F8E7980100106C1400108F
:100B100010B5431C02E010F8011B71B18107FAD136
:100B20004FF0013202C88C1A8C4314EAC211F9D07A
:100B3000C01A0A0603D0C01E10BDC01A10BD0A0498
:100B400001D0801E10BD0902FCD0401E10BD40EA3D
:100B5000010370B59B072ED14FF00136042A2AD32A
:100B600008C810C99D1B9D43121F15EAC61517D052
:100B7000D8B2E1B2401A50EA056110D198B2A1B2E0
:100B8000401A50EA05410AD123F07F4024F07F410A
:100B9000401A50EA052102D1180EA0EB146070BD76
:100BA000A342DBD018BA21BA884201D9012070BD16
:100BB0004FF0FF3070BD0AB9002070BD10F8013B46
:100BC00011F8014B63B1A3420AD1521E08D010F8AC
:100BD000013B11F8014B1BB1A34201D1521EEDD1D3
:100BE000181B70BD10B5203AC0F00B80B1E818504A
:100BF000203AA0E81850B1E81850A0E81850BFF407
:100C0000F5AF5FEA027C24BFB1E81850A0E81850A5
:100C100044BF18C918C0BDE810405FEA827C24BFF9
:100C200051F8043B40F8043B08BF7047D20728BF87
:100C300031F8023B48BF11F8012B28BF20F8023BD6
:100C400048BF00F8012B70474FF0000200B5134673
:100C500094469646203922BFA0E80C50A0E80C50DC
:100C6000B1F12001BFF4F7AF090728BFA0E80C508D
:100C700048BF0CC05DF804EB890028BF40F8042B86
:100C800008BF704748BF20F8022B11F0804F18BFF3
:100C900000F8012B704700004FF0013C50F8042B86
:100CA00051F8043B9A4221D1A2EB0C03934313EA7F
:100CB000CC1317D150F8042B51F8043B9A4215D1AC
:100CC000A2EB0C03934313EACC130BD150F8042B83
:100CD00051F8043B9A4209D1A2EB0C03934313EA67
:100CE000CC13DBD04FF00000704700BFD01A01BA20
:100CF000B1FA81F101F0180122FA01F0CB40C1F103
:100D00002001DBB2C0B2C01A2CFA01F3D11A914310
:100D100011EAC311E6D1704770B5064C7C44064D0C
:100D20007D4403E0206820448047241DAC42F9D173
:100D300070BD00008C6200008C6200002DE9F04163
:100D400017460E46054633B107FB0354E41B204605
:100D5000B047A542FAD1A5F10800BDE8F08110B571
:100D6000FFF776FA083010BD70477047704770473C
:100D700038B504460A4600206946AFF300800028D3
:100D800008BF38BD02460099204600F07EFD0120D4
:100D900038BD012001F0C7BBF8B5AFF300800546B0
:100DA00000200C46102000BF0646A819A0420DD90D
:100DB000324669460020AFF30080070008BF01F00B
:100DC000B2FB0098A04218BF0546C419FFF7C7FF41
:100DD00005600746F01D20F007004619284600F080
:100DE0000AF8B44208BFF8BDA21B31463868BDE816
:100DF000F84000F04ABD00210160C0E901100C304C
:100E000002F0D4BC1020704770B5044685690068B4
:100E1000C10601D5302600E02026C00707D070BDEE
:100E2000D4E9012130469047206A401C20626D1EA3
:100E3000F6D570BD70B5044685690078C00707D146
:100E400070BDD4E9012120209047206A401C206217
:100E50006D1EF6D570BD09684A0501D540B27047D0
:100E6000C905FCD500B2704709684A0501D5C0B272
:100E70007047C905FCD580B2704770B50C46054671
:100E8000012A05D02878800600D5EA69002302E00F
:100E9000012305E05B1C934202D2E05C0028F9D1FB
:100EA000A869E618C01AA861286A1844286228466A
:100EB000FFF7AAFF04E0D5E9012114F8010B9047E0
:100EC000B442F8D32846FFF7B5FF70BD2DE9F047CF
:100ED0000D4699469246044600F1240801688806AA
:100EE00004D5E06921F01001216000E00120A84252
:100EF00001DD471B00E00027A1697A1902EB090018
:100F0000081AA0612078C00602D42046FFF77CFFB3
:100F1000002608E0D4E901211AF806009047206A6B
:100F2000401C761C20624E45F4DB2078C0060AD5B2
:100F30002046FFF769FF06E0D4E901213020904701
:100F4000206A401C2062381EA7F10107F4DC07E08C
:100F5000D4E9012118F805009047206A401C20625E
:100F6000281EA5F10105F3DC2046FFF763FF20787A
:100F7000000602D50220BDE8F0870120FBE7000053
:100F80002DE9F0410646002410687529314616A562
:100F900010D0FFF760FF002802DA404213A507E0F7
:100FA00031688A0701D512A502E0490704D511A5C9
:100FB000012401E0FFF758FF00210A2206F124076F
:100FC00009E0B0FBF2FCB0FBF2F302FB1C00303096
:100FD00078541846491C0028F3D123462A46304647
:100FE000BDE8F041FFF772BF000000002D000000D7
:100FF0002B0000002000000011680268006A530501
:1010000001D508700AE0D30501D5088006E0130673
:1010100003D5C217C1E9000200E008600120704753
:1010200001694A1C02610878704700B58FB0CDE9AC
:1010300001310021059105497944CDE9031011469C
:101040006846FFF7A9FA0FB000BD0000E5FFFFFFFB
:101050000A6802F8010B0A60704700002DE9FF5F83
:1010600015468A460446DFF8AC80F8440027D8E9E4
:1010700000103E46CDE9001010E03AF816106A461E
:1010800002A801F024FA411C07D02178890603D573
:10109000E269391891420DD80744761C2078800601
:1010A00002D5E069B84205DDAE42E6DB3AF816004B
:1010B0000028E2D1A069C01BA0612046FFF7A4FE72
:1010C000D8E90010CDE90010002017E03AF8181018
:1010D0006A4602A801F0FBF9B0F1FF3F81460BD050
:1010E00000250DF1080B05E0D4E901211BF80500EE
:1010F00090476D1C4D45F7D308F10100B042804682
:10110000E4DB206A384420622046FFF793FEBDE806
:10111000FF9F0000E25800002DE9F0418046D21DFB
:1011200022F007020025D2E90002F52915A614D005
:10113000011E72F1000106DA0023D0EB030063EB1D
:10114000020211A608E0D8F800108B0701D50FA6FF
:1011500002E0490701D50EA601251146002408F139
:10116000240704E000F0B0FB30323A55641C50EA2A
:101170000102F7D12B46324621464046BDE8F041F8
:10118000FFF7A4BE000000002D0000002B000000AF
:101190002000000030B4002100F1240408E002F037
:1011A0000705D208303542EA4372DB086554491C12
:1011B00052EA0305F3D10468002310A2250707D5DE
:1011C000A40600D421B1C46901230DA2641EC46128
:1011D00030BCFFF77BBE10B5044621461068FFF710
:1011E00043FE02462046BDE810400023D2E7D21D50
:1011F00022F00701D1E90023CCE700000000000045
:10120000300000003A2800D2303820F02002412A75
:1012100001D3A2F13700884201D34FF0FF3070476D
:10122000026811441378016018467047D16005497F
:1012300079445161044979441162002111611146D8
:1012400000F06ABFEDFFFFFF19070000426842B1DE
:10125000016811F8013B23B1521EC0E90012184683
:1012600070470121C160881E704742685AB1C36847
:10127000016843B983688B4205D0491E521CC0E9FE
:101280000012002070474FF0FF3070472DE9F04703
:1012900005460C46C86820F4201040F48000C86061
:1012A000800602D5084600F0B0F9E06841F28201FC
:1012B0004FF0FF390140022903D0204600F04EF9DB
:1012C000B5E000F42041B1F5004F0FD1C00306D5C1
:1012D0006168E06A884200D80846606006E02069DC
:1012E000E0626060606902F0AFFAA061A06800226D
:1012F000EEB200280DDAE1688B050AD4C043A06085
:1013000041F490302260E0606068411C61600670CA
:10131000A5E0E0689046226040F40050E06020695B
:1013200068BB606902F0A4FA012704F12405A0B1AA
:10133000A08910F4407F08D0E069FEF7D2FF206159
:1013400018B1E06840F4006016E0E7612561E068EC
:1013500020F4407040F480600EE0E069FEF7C1FFC9
:1013600000282061F1D0E06840F4006010F4407F74
:10137000E06002D140F48070E06020696060E06865
:1013800025696FF0010AC1051FD56168E06A8842CE
:1013900000D80846411B04D02246284600F0E8F851
:1013A000F0BBE068010203D5E562C4E9015854E0EE
:1013B000691CE1626160E16940F48030491EC4E962
:1013C000021030462E70BDE8F087010202D500F40D
:1013D00080320AE06068411C61600670E0680A2E95
:1013E00040F48030E06006D00022E16A606881420B
:1013F00003D90B4602E00122F7E70346A7895B1BEE
:101400007F0503D4E7699F4200DDE2B1814200D845
:101410000146E5620F1AC4E90158002B09DD00E01E
:1014200005E022461946284600F0A2F808B14846D1
:10143000C9E747B1A069E5626560C01BA061E068CB
:1014400040F01000E060E068000208D56168A06923
:10145000E562491B08446560A0615046B3E7304629
:10146000B1E700002DE9F041044616460D464769F4
:10147000007B80072ED0384602F0FAF950BB3EB30D
:10148000012E02D0022E25D104E0204600F0FEFFFE
:1014900005441DE0384602F0D7F9E168002841F024
:1014A0001001E16005DA204600F058F80120BDE89F
:1014B000F081C9030BD56268E16A914200D81146F8
:1014C000A26911442269891A814200DD0846054457
:1014D000002D01DA0220EAE7E16A6068E2688142F1
:1014E00006D29103E06203D522F4003141F01002EC
:1014F000A6690027AE4213DCE16A814201D90B469E
:1015000000E0034603EB060C2369ACEB030CAC458F
:1015100006DD814201D98C4600E084469C4505D118
:10152000A760276042F02000A5620DE0AD1BE669D0
:10153000AE1B8142A66000D90846C01A281A206056
:101540005819606022F0200003490840E060002044
:1015500084F84870ABE70000BFCFD7FFC16821F423
:10156000001141F08001C16000218160016070477D
:101570002DE9F047814614460E464FF0FF383248B9
:10158000D5685769054209D03846A16902F076FA54
:10159000002811DB2C48C0430540E5602B4632464D
:1015A0004946384602F07EFAA16920F00042B21A9C
:1015B00011440028A16103D02046FFF7CFFF404629
:1015C000BDE8F08770B504460569C06A6168884265
:1015D00000D80846E16821F42011E160C90312D562
:1015E000A84208D02246411B2846FFF7C1FF10B190
:1015F0004FF0FF3070BD0020E562C4E90150E068A3
:1016000020F48030E060002070BD10B50446C06852
:1016100020F02000E060A16AA06988420DD0204639
:10162000FFF7D0FFE06820F4405040F01000E06089
:10163000A06AA0612069E062606044F24001E06855
:101640008843E06010BD0000100002002DE9F04763
:1016500004461E4690460D46C7684C30814602F04F
:1016600095F8B80714D0780212D44046B8F5807FB8
:1016700009D0B0F5007F06D0B8F5806F08D10126FB
:1016800004F1240506E0701E6FF07F41884201D30B
:10169000012409E02561E6616560E06820F470607E
:1016A00040EA0800E0600024484602F0A5F8204621
:1016B000BDE8F08710B565485421FFF7C5FA6448C6
:1016C0005421FFF7C1FA63485421FFF7BDFA62487D
:1016D0005E49624A624B01605D4810605D4A1A6073
:1016E000431C0B65511C01650120106557484C30A7
:1016F00002F05CF856484C3002F058F855484C302F
:1017000002F054F8574802F051F858484F4A56A191
:101710007844FFF7B2F920B9544878440A3800F009
:10172000FBFE54484A4A52A17844FFF7A6F920B973
:10173000504878440A3800F0EFFE4F48454A4CA123
:101740007844FFF79AF920B94B4878440A3800F0FA
:10175000E3FE40233D48DC0000212246FFF776FFF0
:1017600020B142487844543800F0D6FE384822462A
:1017700040230021FFF76AFF20B13E4878445438E7
:1017800000F0CAFE3348224610230021FFF75EFF17
:10179000002806D038487844BDE81040563800F09C
:1017A000BBBE10BD2B482DE9F041006D2D4E20F041
:1017B0000104304601F0EAFF244D4C35284601F083
:1017C000E5FF2248FFF77AF8284602F015F8284688
:1017D000AFF300801E4D4C35284601F0D7FF1C4862
:1017E000FFF76CF8284602F007F82846AFF30080B0
:1017F000184D4C35284601F0C9FF1648FFF75EF832
:10180000284601F0F9FF2846AFF3008014E0206D70
:1018100020F0010504F14C00074601F0B7FF204617
:10182000FFF74CF8384601F0E7FF3846AFF3008089
:101830002046FEF72EFE2C46002CE8D1304601F063
:10184000DBFF0848AFF30080BDE8F0816C140010A6
:10185000C0140010141500108C010010900100102D
:101860009401001098010010720000004C5000001C
:10187000770000003B5000002B50000010B500F036
:1018800059FEBDE8104000F042BE30B404468C461C
:101890004368002B18BF634538BF1846F8D3036868
:1018A0001844604507D0C81C20F0070000F1040C64
:1018B000ACEB0100121A2146CCF8002030BC00220B
:1018C0000CF10400FEF7B4BD30B5B0F10A024FEAE6
:1018D000900E71F100034EEA817EB0EB0E0061EBD9
:1018E00091014FEA101E4EEA017E10EB0E0041EB13
:1018F00011114FEA102E4EEA016E10EB0E0041EB73
:1019000011214FEA104E4EEA014E10EB0E0041EB52
:101910001141401841F100014FEAD00040EA417006
:101920004FEAD10110EB80054FEA810444EA90743C
:1019300044EB01046D1944EB0404521BA3414FF026
:10194000000348BF0A3200D530BD401C41F1000100
:1019500030BD10B5044600F00BFE0068005D00F0DD
:10196000010010BD70472DE9FF4F0C461E464FF099
:10197000FF378BB0D2E90001DDF860800A908A461B
:10198000C1F30A5505B93D46002108464FF0000055
:10199000BAF1000F00F4400005DA00EB80004FF4CC
:1019A000400101EA50004FEA9059B9F1010F00DD02
:1019B000B9460A9850EA4A000ED044F61050A5F2F3
:1019C000FF3545432F14B8F1000F1ED07542291E74
:1019D0001EDDC9F100021CE0B8F1010F4FF000005C
:1019E00001D0302103E0F24305E02154401CB04215
:1019F000FBDB30460022002121540B99C1F80880FE
:101A0000C1E900200FB0BDE8F08FBD1B6D1CDEE703
:101A10004A4600DA694206A800F0FAFD06AB93E8F0
:101A2000070003AB83E8070050460A9900F0C6FEA2
:101A30008DE80700A0F500501F3800900398002D96
:101A40000ADD42F21F014A460844002303A903901D
:101A5000684601F02FF909E0A0F500504A461F380A
:101A6000002303A90390684601F039F98DE80700C7
:101A70000004000C03D04FF0FF30410800E0104696
:101A8000B8F1000F03D00022009215461EE0751E2B
:101A900005D4FFF719FF303262556D1EF9D5B346F4
:101AA0000122084302D000227F1C04E02078302865
:101AB00001D100227F1E002A099784D01DE0112D3C
:101AC00007DAFFF701FF303262556D1C50EA010260
:101AD000F5D1084302D00098C8B10EE00021681E7D
:101AE00005E0235C625C63542254401E491C814221
:101AF000F7DBAB46A81B401E0990002004F80B0042
:101B00000B98099AC0F80880C0E9002B7AE71126E3
:101B10004FF0000857E72DE9F04F88460446D21DE4
:101B200022F0070191B0D1E90001CDE90A0101F0ED
:101B30004CFD02460B98C00F01D02D2007E0206815
:101B4000810701D52B2002E0202101EAC000032AF1
:101B5000099001D0072A05DB03464146204600F0E4
:101B600017FD0BE12078800601D5E06900E0062032
:101B7000B8F1650F814606D0B8F1660F18D0B8F1FC
:101B8000670F70D131E00020B9F1110F009001DB37
:101B9000112301E009F101030AAA01A90CA8FFF72A
:101BA000E2FEDDE90C70002609F10105834647E0FD
:101BB00001204B4600904FF000470AAA01A90CA84B
:101BC000FFF7D1FEDDE90DB00C995D46002610B996
:101BD00009F101000D18B9EB050003D4C0F1FF367F
:101BE00009F10105A5EB09002BE0B9F1010F01DABC
:101BF0004FF001090020B9F1110F0090484601DDB6
:101C0000112300E003460AAA01A90CA8FFF7ABFEC6
:101C1000DDE90C704D4600268346207800070AD483
:101C2000AB4500DA5D4601A8012D04DD411911F82C
:101C3000011C302907D04F4502DA17F1040F04DAEE
:101C4000012082460FE06D1EEEE7002F02DCED1B47
:101C50003E4403E0781CA84200DD7D1CB81B00F167
:101C6000010A4FF000472078000703D4AA4501DBA2
:101C70004FF0FF3A0021B7F1004F0DF143088DF806
:101C8000431024D002202B23002F01DA7F422D2382
:101C90000A21021EA0F1010000DC5FB197FBF1FCFC
:101CA00097FBF1F201FB1C7C17460CF1300C08F895
:101CB00001CDEEE7A8F1010003702188090501D5E7
:101CC000452100E06521A0F1010800F8011C0998F8
:101CD0000FA9A1EB0807FF1D00B10120411901EB7D
:101CE000EA70A1693844081A401EA0612078C00635
:101CF00002D42046FFF788F8099828B1D4E90121D9
:101D00009047206A401C20622078C00622D52046D9
:101D1000FFF77AF81EE0002E04DBB34502DD01A8D0
:101D2000805D00E03020D4E901219047206A401C0A
:101D30002062761CAAF101005FEA000A0AD100F0D5
:101D40001FFCC0680168405CD4E901219047206A0B
:101D5000401C2062281EA5F10105DCDC07E0D4E967
:101D6000012118F8010B9047206A401C2062381EA0
:101D7000A7F10107F3DC2046FFF75CF8032011B060
:101D800041E600002DE9F04F04460D46D21D22F039
:101D9000070089B0D0E900974846394601F015FCA4
:101DA0000246F80F01D02D2307E02068810701D5F6
:101DB0002B2302E0202101EAC0038DF820300BB173
:101DC000012000E00020032A824601D0072A04DB1C
:101DD0002946204600F0DCFB3FE12078800601D454
:101DE0000D2500E0E569C7F30A560D2D49DA0021FB
:101DF0004FEA175B08464FF00000002F00F4400048
:101E000007DA00EB80004FF4400100EBD07001EAEC
:101E100060008115012901DD4FF0FF3100224FEAFA
:101E2000850CBCF1180F06D31346ACF118004FF027
:101E30008052C24003E04FF4801323FA0CF30CF1FC
:101E40000C0CBCF1200F04D3ACF1200C09FA0CF0FF
:101E500001E007FA0CF000294FF0004801DD18B945
:101E60000FE00ED140450CD319EB02095F4121B9B7
:101E7000404502D19F4329EA0209BBEB175F00D01E
:101E8000761C2088000502D57B48784402E07A4819
:101E90007844193808AA302302F80A30037C0AF182
:101EA0000101002E0AF1020A53546A4602DC4FF087
:101EB000300101E04FF031014FF001088DF80010C2
:101EC00002D0A6F2FF3603E059EA470100D06B4E7C
:101ED000002D02DC2178090704D54FF002082E21DD
:101EE0008DF80110C44600210BE0C7F303433F0106
:101EF000C35C491C6D1E02F80830052908F1010871
:101F000001DA002DF1DC00210CE000EB1973491C13
:101F10001B786D1E082902F808304FEA091908F1EC
:101F2000010801DA002DF0DC21688B0602D516E0ED
:101F3000A8F10108E04505DD02EB080313F8013CB8
:101F4000302BF5D0B8F1000F09DD02EB080313F8D0
:101F5000013C2E2B03D1090701D4A8F10108002D63
:101F600005DD3E2102F808106D1E08F10108407CD5
:101F7000002E02F8080008F1010804DA2D2076424C
:101F800002F8080002E02B2002F808000A214FF4B2
:101F90007A70864208F101080BDB96FBF0F33033D0
:101FA00002F8083096FBF0F308F1010800FB136615
:101FB00001E0642E0CDB642096FBF0F3303302F872
:101FC000083096FBF0F308F1010800FB136601E00E
:101FD0000A2E06DB96FBF1F0303002F8080008F11B
:101FE000010896FBF1F001FB1060303002F80800A8
:101FF000A16908F1010808EB050202EB0A00081AC2
:10200000A0612078C00602D42046FEF7FDFE216ABA
:1020100008AE01EB0A00206204E0D4E9012116F8C1
:10202000010B9047BAF1010AF7D22078C00602D519
:102030002046FEF7E9FE6E4609E016F8010B3E2841
:102040000FD0D4E901219047206A401C2062B8F1EA
:102050000108F2D22046FEF7EDFE09B00320BDE8EC
:10206000F08F206A2844206203E0D4E90121302067
:1020700090476D1EEBD3F8E7DD4A000002FCFFFF3E
:1020800010B5436913B1AFF3008001E0FEF7F5FE30
:10209000012010BD127800F124010A7000224A705C
:1020A0000122EDE711684FF0FF32E9E72DE9F04139
:1020B00014460D46074601F14C06304601F066FB1A
:1020C000094B7B44224629463846FEF7AEFF0446BC
:1020D000287B000601D54FF0FF34304601F08CFB21
:1020E0002046BDE8F0810000CB1C000010B543691C
:1020F00013B1AFF3008001E0FEF7B0FF012010BD87
:10210000128800F1240182840022C2840122EDE7BA
:1021100011684FF0FF32E9E72DE9F34F4FF0000A65
:102120000C4656468DB001200C9001F10C000B902E
:1021300062690B9801219047051E2DD0252D2CD0CA
:10214000216A8847C0B162690B9801219047216AD2
:1021500088470028F7D16269411E0B98904700E03C
:10216000761CA1690D988847216A88470028F7D115
:10217000E1690D988847DBE7A1690D988847A84277
:10218000074601D1761CD3E7E1690D9888477F1C8B
:1021900002D1BAF1000F6FD06BE162690B98002792
:1021A0003D46394690472A2804D162690B9801219F
:1021B00090470125DFF8D08262690B980121904792
:1021C000A0F130010A290AD24745E5DC07EB870177
:1021D00000EB4107303FDFD445F01005ECE7E9069E
:1021E00001D46FF000476C280AD04C2814D068281E
:1021F00015D06A280DD074281CD07A281AD01DE07A
:1022000062690B98012190476C2802D045F00405C3
:1022100014E045F002050DE045F020050AE0626992
:102220000B9801219047682802D045F0080505E089
:1022300045F4006562690B9801219047C4E9015794
:1022400065283DD019DC58287AD00CDC452837D0D9
:1022500004DC252826D041289ED131E046282FD005
:10226000472899D12CE05B2877D0612828D06328B3
:102270007CD0642823D15AE0F6E06F2848D008DCEF
:1022800066281DD067281BD0692821D06E2816D15A
:1022900027E0702845D0732868D0752847D0782863
:1022A0000DD14DE0A1690D988847252805463FF4DA
:1022B00069AFE1690D9888476D1C3FF46AAFD8E0BB
:1022C0000D9923466A466FF00100AFF30080C5E028
:1022D00045F0400023464FF000026060A80736D466
:1022E0003EE0E8077FF447AF2068011D21600068E9
:1022F000290501D506701BE7290701D5068017E7D8
:10230000A90703D5F117C0E9006111E706600FE7DF
:1023100045F0400023464FF008026060A80716D43D
:102320001EE040F60E0125EA0100606016E045F06F
:10233000400023464FF00A026060A80707D40FE070
:1023400045F040006060A80708D5234610220D998B
:102350006FF00100AFF3008080E007E01022234619
:102360000D996FF00100FEF7F9F977E04FF00009E1
:1023700063284F46C8464B46CB4602D05B2806D062
:1023800038E0E80601D40120A060012732E062694C
:10239000D4F80CB00B98012190475E2807D14FF07C
:1023A000010949466269D4F80CB00B98904721693D
:1023B00039B900210A4603AB43F82120491C0829FA
:1023C000FADBD8B3216949B308F1010862690B98B7
:1023D000012190475D28F4D1B9F1000F09D0002008
:1023E00003A951F82020D24341F82020401C08289E
:1023F000F7DB03AB2069002820794FEA40701ED03C
:102400005B462246CDF80080CDE901970D99002862
:102410006FF0010020DAAFF300801FE0C11703AABC
:1024200000EBD1614B1121F01F0102EB8302411A35
:1024300013680120884003431360C7E719E00D9932
:10244000224600286FF00100009702DAAFF3008007
:1024500004E0AFF3008001E0AFF3008000280ADA67
:10246000401C06D10C9820B14FF0FF300FB0BDE8F2
:10247000F08F5046FAE7E90701D10AF1010A064454
:1024800000200C9054E60000CCCCCC0C10B50146DA
:10249000C268900703D0900607D5886A0AE000F06A
:1024A00074F801210160881E10BD8B6948681844CA
:1024B0000B69C01A91F848301BB191F84910401AC5
:1024C00010BD1103FCD50028FADD401E10BD70B50B
:1024D00016460C46054600F04BF8036893F80101D8
:1024E000012806D0FF2C0FD8185D68B101202C7090
:1024F00070BDD3F807013246214603F207130344A7
:102500002846BDE8704018474FF0FF3070BD0028E6
:1025100001D000F027B8704710B500F005F9BDE80C
:102520001040FFF7F4BF10B500F018F9BDE81040F7
:10253000FFF7EDBF10B5002102A000F0DBF801208D
:1025400010BD00005349475056464E3A2050757210
:1025500065207669727475616C20666E2063616CAB
:102560006C65640001491820ABBEFEE7260002003E
:1025700010B500F005F8001D10BD00BF253F00009C
:1025800010B5FDF765FE203010BD01F0ADB80000BC
:102590002DE9F0411F46044603260168072A01F48D
:1025A000006004DB08B116A505E016A503E008B13C
:1025B00015A500E015A521F010002060A069C01E3F
:1025C000A0610FB1401EA0612046FEF71DFC4FB177
:1025D000D4E9012138469047206A401C2062C01C83
:1025E000206206E0206AFAE7D4E9012115F8010B20
:1025F0009047761EF8D22046FEF71CFCBDE8F0811D
:102600004E414E006E616E00494E4600696E660096
:102610002DE9F047814616468AB0354878440DC802
:102620008DE80D0032487844801C03AC0DC884E866
:102630000D0041F69B300844372190FBF1F290FBEE
:10264000F1F5A5F1800501FB12041B3C02D56442A3
:10265000012000E00020DFF898A080460027FA441F
:10266000AAF1BE0A0EE0E0070AD03246684607EB40
:10267000470101230AEB810100F031FB8DE80700DF
:1026800064107F1C002CEED1194F7F44AE3F19E03F
:10269000E80715D007EB04100DF1180A90E80E00BA
:1026A0008AE80E00C068F04201D1981908903246BD
:1026B000012306A903A800F012FB03AB83E807007F
:1026C0006D10641C002DE3D14FF0010332466946C2
:1026D000B8F1000F03A802D000F0ECFA01E000F01E
:1026E000FEFAC9E90001C9F808200AB0BDE8F08780
:1026F000DC43000070B505460C460A2000E06D1C66
:1027000000F054F835B128780028F8D102E0641CB4
:1027100000F04CF814B120780028F8D1BDE87040E2
:102720000A2000F043B8000010B5014602A0FFF7F0
:10273000E1FF012010BD0000534947525452454467
:102740003A2052656469726563743A2063616E274A
:1027500074206F70656E3A200000000010B50128EB
:1027600005D0002103A0FFF7C5FF012010BD09A17E
:10277000F8E7000053494752544D454D3A204F75F4
:1027800074206F662068656170206D656D6F727969
:10279000000000003A2048656170206D656D6F7221
:1027A0007920636F727275707465640008B569464C
:1027B0008DF800000320ABBE08BD70475FEA400CF7
:1027C00008BF91F0000F4FEA8C234FEAC12243EA81
:1027D00051514FEA1C5018BF00F5F0404FEA30004D
:1027E00018BF41F000415FEA6C5C00F02980BCF149
:1027F000FF3F08BF40F080407047130C06BF120433
:102800004FF0100C4FF0000C130E04BF12020CF12D
:10281000080C130F04BF12010CF1040C930F04BF3A
:1028200092000CF1020CD30F04BF52000CF1010C0A
:1028300011464FF00002A0F11F00A0EB0C00704702
:1028400011F0004F08BF704731F000413FF4D5AFA1
:102850000B0C06BF09044FF0100C4FF0000C0B0ED0
:1028600004BF09020CF1080C0B0F04BF09010CF1A5
:10287000040C8B0F04BF89000CF1020CCB0F04BFBA
:1028800049000CF1010CCCF12003A0EB0C0022FA62
:1028900003F302FA0CF241EA030100F10100704770
:1028A00020F07F4C80EA030023F07F47ACEB070366
:1028B00003F57C5300F0004003F1FF032DE980494C
:1028C0004FEA154B09B44FEA144325EA0B4E24EAAC
:1028D00003480FF2042606EB132749083E785FEA07
:1028E000320203FB0667C7F5000707FB06F64FEA4F
:1028F00054374FEAD64606F1020607FB066CCCF1C8
:10290000005C4FEA1C472CEA074C07FB06F40CFB63
:1029100006F504EB15464FEA961634BF00204FF03B
:1029200000404FEAD13706FB07FC4FEA1C4C0CFB7A
:102930000BF7D21B03FB0CF761EB07010CFB0EF747
:10294000B0EB074072EB17420CFB08F734BFA2EB69
:102950000742B2EB074261EB17414FEA0C444FEAE2
:10296000910706FB07FC4FEA1C4C0CFB0BF7B0EB86
:10297000C74072EB573203FB0CF734BFA2EBC742E0
:10298000B2EBC74261EB57310CFB0EF7B0EBC7005F
:1029900072EB57720CFB08F734BFA2EBC702B2EB25
:1029A000C70261EB5771039F4FEA816141EA9211BF
:1029B00004EBCC044FEAD1374FEA826206FB07FCF6
:1029C00042EA90124FEA80604FEA1C4C0CFB0BF776
:1029D000D21B03FB0CF761EB07010CFB0EF7B0EB0E
:1029E000074072EB17420CFB08F734BFA2EB07421B
:1029F000B2EB074261EB17414FEA8C554FEA910762
:102A000004EB9C2406FB07FC4FEA1C4C0CFB0BF769
:102A1000B0EBC74072EB573203FB0CF734BFA2EBAD
:102A2000C742B2EBC74261EB57310CFB0EF7B0EB7C
:102A3000C70072EB57720CFB08F734BFA2EBC7025A
:102A4000B2EBC70261EB577115EB4C254FEA816180
:102A500041EA92114FEA82624FEAD13742EA90127C
:102A600006FB07FC44F100044FEA80604FEA1C4C6F
:102A70000CFB0BF7D21B03FB0CF761EB07010CFB04
:102A80000EF7B0EB074072EB17420CFB08F734BFB0
:102A9000A2EB0742B2EB074261EB174115EB1C15A5
:102AA0004FEA813141EA92414FEA823242EA904252
:102AB0004FEA80304FEA0C7644F1000448EA0343C1
:102AC0004EEA0B484FF0000EB2EB080C71EB030717
:102AD00024BF624639464EEB0E0E4FF0000B001835
:102AE000524149414BEB0B0BB2EB080C71EB030766
:102AF0007BF1000B24BF624639464EEB0E0E4FF0C1
:102B0000000B0018524149414BEB0B0BB2EB080C88
:102B100071EB03077BF1000B24BF624639464EEB95
:102B20000E0E51EA020718BF46F0010616EB0E76AC
:102B300055F1000254F1000103D5BDE88901BDE85B
:102B40000088BDE88901BDE80048B619524141EB53
:102B50000101A3F10103704780807F7E7D7C7B7A39
:102B60007978777676757473727171706F6E6E6D39
:102B70006C6C6B6A6A6968686766666564646363DF
:102B800062616160605F5F5E5E5D5D5C5C5B5B5A65
:102B90005A595958585757565655555554545353D2
:102BA00052525251515050504F4F4F4E4E4D4D4D2D
:102BB0004C4C4C4B4B4B4A4A4A4949494848484778
:102BC00047474746464645454544444444434343B6
:102BD0004342424242414141002B9C4630D477005F
:102BE0002BD01CB54FEA370703B44FF010004FF05D
:102BF0001001BAF1000F06D0BCF1000FDCBF40F0AD
:102C0000080040F008014FF000000FBCBDE8104084
:102C10000BF1010BBBF1010F08BF5FEA170722BFE1
:102C200012F1010211F101014FF0004143F10003E3
:102C300000F0004043EA00007047F9D35708D0E79E
:102C400046EA064613F1400F4FEA16461FDD13F120
:102C5000200FDFBF16430A46002120335B42BED05F
:102C6000C3F1200746EA064602FA07F74FEA16467E
:102C700046EA0706C3F1200722FA03F201FA07F732
:102C800021FA03F14FF0000342EA0702A7E746EA00
:102C9000020646EA06464FEA164646EA0106BCBF69
:102CA00046EA0646360C4FF000034FF000024FF0A4
:102CB000000194E72DE9804C9A46934670B491E860
:102CC000380007C831EA400C48BF34EA430C03D54A
:102CD000FFF7E6FDFFF780FFF0BCBDE8008C2DE9B3
:102CE000804C9A46934670B491E8380007C810F0BB
:102CF000804F08BF13F0804F03D100F005F8FFF7B5
:102D00006BFFF0BCBDE8008C20F07F4780EA030039
:102D100023F07F4C07EB0C03A3F57C5300F000403D
:102D2000A3F1FE0392F0000F00F0B38095F0000FC6
:102D300000F077802DE901494FEA11404FEA14462F
:102D400021EA004800FB06FC24EA064708FB06F6D9
:102D500007FB08F800FB07F718EB06484CEB164C8E
:102D60004FEA124B18EB07484FEA15464CEB174059
:102D700022EA0B4E0BFB06FC25EA06470EFB06F685
:102D800007FB0EFE0BFB07F71EEB064E4CEB164C3B
:102D90004FF000061EEB074E4CEB174B18EB0B08E1
:102DA00040F1000018EB0E0B58EB000840F100005A
:102DB0008F1A4FF000013CBFC943661B14BFB5EB2F
:102DC000040C00213CBFC943F61B4FEA17444EEAEE
:102DD0008E0E27EA04454FEA1C4704FB07622CEAE3
:102DE000074C05FB07F70CFB05F604FB0CFC16EB88
:102DF000074642EB174216EB0C4642EB1C421BEB1C
:102E0000060658EB0202414146EA9E0601D5BDE89E
:102E10000189B619524141EB0101A3F10103BDE85B
:102E200001894FEA14454FEA114724EA054621EA91
:102E3000074C05FB07F406FB07F70CFB06F105FB47
:102E40000CFC11EB074144EB17444FEA124711EB1E
:102E50000C4144EB1C4422EA074C05FB07F206FB3D
:102E600007F70CFB06F605FB0CFC16EB074642EBDE
:102E7000174216EB0C4642EB1C456A1854F1000150
:102E800048BF7047B619524141EB0101A3F101035C
:102E9000704795F0000F37D04FEA11424FEA1447C0
:102EA00021EA024624EA074C02FB07F106FB07F77A
:102EB0000CFB06F402FB0CFC14EB074441EB17413E
:102EC0004FEA154714EB0C4441EB1C4125EA074C33
:102ED00002FB07F506FB07F70CFB06F602FB0CFCF2
:102EE00016EB074645EB174516EB0C4645EB1C4227
:102EF000121951F1000148BF7047B619524141EB18
:102F00000101A3F1010370474FEA14454FEA11474D
:102F100024EA054621EA074C05FB07F106FB07F703
:102F20000CFB06F24FF0000605FB0CFC12EB07420F
:102F300041EB174112EB0C4251EB1C4148BF70476B
:102F4000921841EB0101A3F101037047000000005A
:102F500010B501F0B9F9BDE8104001F055B80021F5
:102F6000C160704725482021C0F8A011D0F8A011F9
:102F700011F0200F05D000BFD0F8A01111F0400FC4
:102F8000FAD00221C0F804110022C0F8A821C0F82C
:102F9000AC210121C0F80C110B23C0F88430AA2306
:102FA000C0F88C304FF0550CC0F88CC0C0F88010C1
:102FB000C0F88C30C0F88CC0D0F8881011F0806F49
:102FC000FAD00321C0F88010C0F88C30C0F88CC053
:102FD000D0F8881011F0407FFAD00521C0F8081110
:102FE0000749C0F8C410C0F8C821016843F23A028A
:102FF00021F47041114301607047000000C00F4090
:10300000DE87280470B504460068416A2046884778
:103010002068012200210369204698470546B0F147
:10302000FF3F206811D00222036900212046984703
:1030300006462068002229460369204698472068F2
:10304000816A20468847304670BD816A204688479D
:103050004FF0FF3070BD70477047000070B50546F7
:10306000174C164828602068002804BF201D2060E7
:10307000261DB04204D059221249134801F014F819
:1030800000211248D4F8003010228C4650F821401C
:10309000AC4208BF40F821C0491C521EF6D1084975
:1030A000002B12BF0868081D0860B04204D05922E6
:1030B0000449054800F0F8FF284670BD1C6A00006E
:1030C000C8000010986B0000846B00009C01001089
:1030D00010B50C46001D02F0F9FD204610BD0000A1
:1030E00010B500EB011000F10C04806928B940F222
:1030F0008F220549054800F0D7FFE06801682046A7
:10310000BDE8104008470000F96B0000F46B0000B8
:103110002DE9F0478A461B4940F8041B002140F87E
:10312000041B1C46914640F8041B0223102216493A
:1031300000F07CFADFF85480A0F10C050026046250
:1031400005EB061000F10C04114FE1682046002940
:103150001CBF89688847761CC4F80C802760022E43
:10316000EED34A465146281D02F07CFC281DE96A30
:1031700002F096FB2A460749281D02F033FD284637
:10318000BDE8F087506A00005F2F0000E86B000088
:10319000BF350000E13000000021FDF785BB0000D5
:1031A00010B51C46029BFFF7B3FF2146303000F0FC
:1031B00069F8044940F8301D5C3141633C390163D2
:1031C00010BD0000686A000010B50B4940F8341BC0
:1031D0005C3140F804193C39016000F073F8303874
:1031E0000446064940F80C1B022310220449FDF74F
:1031F000A5FD204610BD0000686A0000506A00006E
:1032000009650000002070470020704700207047CB
:103210002DE9F041054600680F460C468E18416ABC
:1032200028468847B4420AD0286814F8011BC26AAD
:1032300028469047B0F1FF3F18BFB442F4D1286848
:10324000816A28468847E01BBDE8F081002070476E
:103250000FB470B504460068416A2046884706AD41
:103260006069FDF790FB2A4660690599FDF72EF924
:1032700005462068816A20468847284670BC5DF86C
:1032800014FB000010B584B000F0E2F804460A48D0
:1032900020603C30606000206061224607A16846E3
:1032A000FDF71AF906A16846FDF7FCFB6061FFF720
:1032B00073FF04B0204610BDD46A00003A257000A8
:1032C000772B000010B50446054820603C30606054
:1032D0006069FDF719FB2046BDE8104000F0CAB850
:1032E000D46A000070B50546024803F0EFF80446C2
:1032F00000BF70BD6801001070B50546024803F0BC
:10330000E5F8044600BF70BD6801001070B50446C2
:103310002068816820468847201D00F045FC05464E
:103320002068C16820468847284670BD70B50446AD
:103330000D46074820602046FFF7D4FF2946201D90
:1033400000F0E6FB2046FFF7D7FF204670BD0000E7
:10335000206B00007047007B7047000070B5064688
:103360000D46154803F0B2F814480468F4B1A0689B
:10337000C8B12A463146FDF7EAFBA0B9A068FDF7BF
:10338000C7FBA8420FD10C480168002904BF011DEA
:103390000160001D814204D059220949094800F00A
:1033A00083FE204670BD6468002CE0D1024803F023
:1033B0008DF8002070BD0000840100108001001015
:1033C000986B0000846B000070B504460B48002623
:1033D000A160C4E900060D462273094803F076F89F
:1033E000002D08BF666003D0064801686160046074
:1033F000034803F06BF8204670BD0000386B0000F6
:10340000840100108001001010B504460D482060B2
:103410000D4803F05BF8A06878B10C490868A04239
:1034200004BF6068086008D04168A14203D0084624
:103430004968A142FBD161684160034803F046F846
:10344000204610BD386B0000840100108001001080
:1034500010B5064A40F8042B0022FFF7B5FF0449D7
:1034600040F8041D3431416010BD00001C6A0000AA
:10347000486B000010B5001DFFF7C6FFBDE8104007
:10348000001FFFF7EBBD10B50446406828B1FFF7F9
:1034900062FF012804BF606810BD002010BD10B598
:1034A0000446406810B1FFF756FF08B1002010BD78
:1034B0006068002818BF001F10BD4068002818BFB2
:1034C0000120704710B54068002808BF10BDFFF705
:1034D00042FF00280CBF0120002010BD006870478B
:1034E00010B5044600202060606008782F280DD1B8
:1034F000487858B14B1C00212360226810782F288F
:1035000006D038B1501C491C2060F6E7204610BD9B
:10351000501C20601846FFF721FF6060204610BD58
:1035200010B5044600BF00BF00BF2068401C20B992
:103530002C2207A115A000F0B7FD00BF606900684C
:103540006168084008B1012010BD0020FCE70000C0
:103550006D6265642F5441524745545F4C5043316E
:103560003736382F5441524745545F4E58502F54E8
:1035700041524745545F4C5043313736582F67709E
:10358000696F5F6F626A6563742E68006F626A2D8F
:103590003E70696E20213D202850696E4E616D6538
:1035A000294E430070B504460D4618212046FDF70C
:1035B0004BFB2946204600F040FC204670BD70477A
:1035C00070473038FFF784BD7047490050EAC1208A
:1035D00018BF04204A0D18BF40F0010040F2FF72EE
:1035E000B2EB515F08BF40F00200012808BF052080
:1035F000704700002DE9F0410A4D0E4607462C6841
:103600002868B0F1805F07D221466C06C4222046AC
:10361000FDF7E8FA2046286004EB87000664BDE861
:10362000F081000008ED00E0012070472DE9F04135
:103630001C4617460E00804607D0054602E0284685
:10364000B0473D442046641EF9D24046BDE8F081B3
:103650000020FEF713B9EFF314807047EFF30580F5
:103660007047EFF31080704738B516491648FFF7DA
:1036700099FF1449491C1548FFF794FF1149273158
:103680001348FFF753FE0446124A1349FFF7CCFFD5
:103690000C4928311148FFF749FE04460D4A0E49EE
:1036A000FFF7C2FF4FF416500023064A143A511E8A
:1036B00000900B48FFF774FD0446064A0949FFF7DE
:1036C000B3FF38BD17C0092090130010A8130010D5
:1036D0005801001000000000553300006001001088
:1036E000C0130010C9310000074810B5007848B178
:1036F00002F0B4F830B1054900EB400001EB401096
:10370000603810BD024810BDED000010300D0010F3
:103710000C14001002486A4620F0070070470000B1
:103720006F150010F0B503460E4602F0004030B1B0
:1037300022F00040C01D20F00702102503E0D01C3D
:1037400020F003020C250AB90120F0BD5019B04247
:1037500001D90120F9E7591919609F195F609A6032
:10376000BF1A05E08C18BC4200D902E00C6021466B
:10377000F8E700BF0020086000BFE6E730380A28FD
:1037800001D20120704700207047000005490978E8
:10379000002905D000684FF6FF71DFF80CC000DF8C
:1037A00070470000ED000010E54F000070B5094CB7
:1037B000054660690C2802D307A000F0CAFA0D483C
:1037C000616900EB0110491C2860616101F072FB26
:1037D000012070BD200100104E6F7420656E6F7562
:1037E0006768207374646C6962206D7574657865B0
:1037F000730A0000D012001004490978002903D090
:103800000068DFF80CC000DF70470000ED0000101A
:10381000C94E000010B500F058FD10BD0328BCBF14
:10382000002070470749002201EB800151F80C0C81
:1038300041F80C2C002804BF4FF0FF30704701689E
:10384000496808479C0100100328BCBF002070474E
:10385000064901EB800050F80C0C002804BF4FF023
:10386000FF30704701688969084700009C0100101B
:103870000328BCBF01207047064901EB800050F8C7
:103880000C0C002804BF4FF0FF3070470168C96876
:10389000084700009C0100102DE9F0430E4683B05C
:1038A00081466B49FDF7F8F96B4D6A4C6F1E20B3EA
:1038B0006A494846FDF7F0F900282ED06849484685
:1038C000FDF7EAF9002838D0664C2068002804BFCC
:1038D000201D2060251DA84204D05922624963485A
:1038E00000F0E2FB2168624F002400BF57F824007B
:1038F00098B3641C102CF9D332E0206848B92A46EA
:1039000039465C4802F0AEF84FF41651594801F0C0
:10391000C7FF03B00020BDE8F083206848B92A46FD
:103920003946544802F09EF84FF41651514801F0C0
:10393000B7FF03B00120BDE8F083206848B92A46EC
:1039400039464C4802F08EF84FF41651494801F0C0
:10395000A7FF03B00220BDE8F083FFE7102C11D3CE
:103960004048002904BF011D01600068A84204D03E
:1039700059223D493D4800F097FB03B04FF0FF301E
:10398000BDE8F0834FF0FF3047F8240035480029A8
:1039900004BF011D01600068A84204D059223249C9
:1039A000324800F081FB99F800004FF000083A28F7
:1039B00010D049466846FFF793FD6846FFF77DFD46
:1039C000A0B36846FFF77EFD0028684609D0FFF7E0
:1039D00066FD23E06A4628A14846FCF7A1FE009850
:1039E0001CE0FFF750FD08B316F0020F18BF0225C8
:1039F00023D000BF16F00C0F18BF45F4007516F069
:103A0000040F18BF45F4806506466846FFF766FD5B
:103A1000014630682A4683683046984700281FBF11
:103A200047F82400E01C03B0BDE8F08347F8248089
:103A300003B04FF0FF30BDE8F08316F0040F18BF5D
:103A40000125D7D116F0080F14BF09250025D1E7AD
:103A500060670000D000001003C009206767000005
:103A60006F670000C8000010986B0000846B0000B6
:103A70009C010010D80000103A2570000328BCBF3C
:103A800000207047064A02EB800050F80C0C00281A
:103A900004BF4FF0FF3070470268136900221847D7
:103AA0009C01001070B514460E46032818DA14481D
:103AB000006848B9134A1448511E01F0D3FF4FF46F
:103AC0001651114801F0ECFE0025002C06D9715D5D
:103AD0000D4802F0FBF86D1CAC42F8D820460DE012
:103AE0000A4901EB800050F80C0C002804BF4FF08D
:103AF000FF3070BD01680B6831469847201A70BDD1
:103B0000D000001003C00920D80000109C01001054
:103B100070B50D4604461849284600F05FFEC0B255
:103B20002070FF2804D12F22144915A000F0BCFA00
:103B3000194850F8C41F41F4805140F8681BC16F08
:103B400021F04071C167C16F41F08071C1671348B6
:103B5000134900680844401E90FBF1F04FF4001137
:103B6000401E41EA00200F4908602846BDE8704029
:103B7000014900F061BE0000F4660000446C0000E2
:103B80006F626A2D3E61646320213D2028414443D9
:103B90004E616D65294E430000C00F40E0000010EB
:103BA000405DC600004003402F4910B40A6822F06F
:103BB000FF020A600A680378012404FA03F31A4337
:103BC0000A600A6842F080720A604A6812F0004F88
:103BD000FBD00B6823F080730B600B68C2F30B12F1
:103BE00023F0FF030B600B6890F800C004FA0CFC94
:103BF00043EA0C030B600B6843F080730B604B6867
:103C000013F0004FFBD0D1F800C02CF0807CC1F83D
:103C100000C0C3F30B1C0B6823F0FF030B600B68A1
:103C2000007804FA00F018430860086840F08070DB
:103C30000860486810F0004FFBD00B6823F08073D9
:103C40000B60C0F30B10624502D9114662468C46E8
:103C5000844588BF8446624588BF94464FEA1C204D
:103C600010BC40EA0C1070470040034070B5EFF301
:103C70001080012121EA000080F0010572B60D4C90
:103C80006068002808BF25706068B0F1FF3F04D16C
:103C90003322094909A000F007FA606828B125B964
:103CA000372205490FA000F0FFF96068401C6060F2
:103CB00070BD0000780100101C6E0000696E746514
:103CC00072727570745F656E61626C655F636F754B
:103CD0006E746572203C2055494E5433325F4D411D
:103CE00058000000696E74657272757074735F6459
:103CF000697361626C65640010B50E4C60680028E1
:103D000008BF10BDEFF31080012121EA000090F000
:103D1000010F04D14822084908A000F0C5F96068E5
:103D2000401E60606068002806BF2078002810BD33
:103D300062B610BD780100101C6E0000696E7465DB
:103D40007272757074735F64697361626C6564002C
:103D500070470FB410B503A9029800F08BFA012048
:103D600000F000F804460848FCF70DFE0748FCF791
:103D70000AFE00F0A7FA002818BF01F08BFD002C06
:103D800018BF00F0BBF9FEE7C014001014150010B6
:103D90008A68002A01DCFDF779BA521E8A604A68F7
:103DA000C0B2531C4B6010707047000070B50446E1
:103DB00000680D46B0F1FF3F04D12C2209490AA04A
:103DC00000F072F945B1012D18BF70BDA0680168FF
:103DD00062681143016070BDA06801686268914328
:103DE000F8E70000A06C00006F626A2D3E70696EFB
:103DF00020213D202850696E4E616D65294E43009B
:103E000070B50C4605460160B1F1FF3F08BF70BDBB
:103E10000021204600F03CFC04F01F00012101FAC3
:103E200000F0686024F01F0000F11801E960091D2E
:103E3000296108396961A86070BD70B5032605461F
:103E40000C46FFF7DDFFB4F1FF3F08BF70BD002156
:103E50002846FFF7ABFF31462846BDE8704000F02A
:103E600059B8000070B50D4604460226FFF7C8FF9A
:103E7000B5F1FF3F08BF70BD2068B0F1FF3F04D12E
:103E800024220849084800F00FF921696068086099
:103E900001212046FFF78AFF31462046BDE87040E9
:103EA00000F038B8F86C0000FC3E00002DE9F0414D
:103EB00004460E4602271546FFF7A2FFB6F1FF3F64
:103EC00008BFBDE8F0812068B0F1FF3F04D1242293
:103ED00009490AA000F0E8F86068002D14BFE16805
:103EE0002169086001212046FFF760FF394620461E
:103EF000BDE8F04100F00EB8F86C00006F626A2D6A
:103F00003E70696E20213D202850696E4E616D65BE
:103F1000294E4300006800F0E9BBFEB504460E469A
:103F200004B12EB1802000909DE8070003B0F0BDE1
:103F30002078012804D0802000909DE80700F5E754
:103F400001A9204600F026F80546042D04D00020E3
:103F500000909DE80700E9E7102000909DE8070029
:103F6000E4E770B504460E46154604B10DB1802055
:103F700070BD2078012801D08020F9E7204600F0AC
:103F80005FFE08B98120F3E73146204600F031F8A2
:103F90000020EDE770B505460E462C46A08930B3EB
:103FA000618904F1100050F8210030606078022827
:103FB00005D10021204601F0C3F801F0AFF800BFA1
:103FC00004F10C00D0E85F0F401E81B204F10C0038
:103FD000C0E8521F002AF3D16089401C80B2608182
:103FE000E189884201D100206081042070BD002059
:103FF000FCE770B504460D4626462946304601F0DA
:104000009FF801F08BF870BD27E01448FFF77EF9A8
:104010000446224612A11548FFF71AF91448FFF783
:1040200075F90446224613A11048FFF711F9144808
:10403000FFF776FA0446224612A10C48FFF708F96A
:104040001448FFF76DFA0446224613A10748FFF70C
:10405000FFF84FF07E5002F0EDF9D6E7580100105E
:10406000506F7431203A2025640A0D00F0130010BF
:1040700060010010506F7432203A2025640A0D0050
:1040800090130010427574746F6E313A2025640AE3
:104090000D000000A8130010427574746F6E32207A
:1040A0003A25640A0D00000070B514460D46064618
:1040B000FFF7DCFD23462A46314603A000F0AEF8A8
:1040C000BDE8704000F01AB86D62656420617373DA
:1040D0006572746174696F6E206661696C65643ABB
:1040E0002025732C2066696C653A2025732C206C82
:1040F000696E65202564200A0000000098B0FFF773
:10410000B5FD3B496846FFF7ADFE3A4906A8FFF703
:10411000A9FE39490CA8FFF7A5FE384912A8FFF7F8
:10412000A1FE0098B0F1FF3F04D12422344935A00C
:10413000FFF7BAFF0399019808600698B0F1FF3FB6
:1041400004D124222E492FA0FFF7AEFF0A99079829
:1041500008600C98B0F1FF3F04D12422284929A01F
:10416000FFF7A2FF10990D9808601298B0F1FF3F79
:1041700004D12422224923A0FFF796FF1599139812
:104180000860962002F068F90098B0F1FF3F04D172
:1041900024221B491BA0FFF787FF049901980860A0
:1041A0000698B0F1FF3F04D12422154915A0FFF76E
:1041B0007BFF0999079808600C98B0F1FF3F04D184
:1041C00024220F490FA0FFF76FFF0F990D98086089
:1041D0001298B0F1FF3F04D12422094909A0FFF74A
:1041E00063FF169913980860962002F035F998E756
:1041F00032C0092034C0092035C0092037C0092049
:10420000F86C00006F626A2D3E70696E20213D20BF
:104210002850696E4E616D65294E43000FB470B52C
:10422000A0B025AC249DFFF721FD22462946684613
:10423000FCF73AF9051E10DD0B48006820B90B4A5F
:104240000B48511E01F00EFC00246E460848315DFB
:1042500001F03CFD641CAC42F8DBFFF74DFD20B0E3
:1042600070BC5DF814FB0000D000001003C00920F2
:10427000D800001070B5A0B00C460546FFF7F6FC5C
:10428000224629466846FCF70FF9051E10DD0A484C
:10429000006820B9094A0A48511E01F0E3FB0024D6
:1042A0006E460748315D01F011FD641CAC42F8DB3D
:1042B000FFF722FD20B070BDD000001003C0092020
:1042C000D800001001F0DEBA7047704710B5FFF754
:1042D000C8F910B9FFF7C2F908B1822010BDFFF785
:1042E000BAF900F0010010B901F0B8FDF6E700BF1F
:1042F000DFF808C000DF00BFF0E700005D5E0000EF
:1043000010B5FFF7AEF938B9FFF7A8F920B9FFF7F4
:10431000A2F900F0010010B90448007810BD00BFF8
:10432000DFF80CC000DF00BFF8E70000ED00001070
:10433000D55E000000B589B0FFF793F910B9FFF71B
:104340008DF910B1822009B000BDFFF7D9FF50B937
:104350003248006838B131480068406818B12F49C8
:10436000096848688047FFF776F900F0030030B12C
:10437000012828D0022828D0032848D13FE009A8E6
:1043800080F3098800BF2648007800F0010020B1C2
:10439000022080F3148800BF04E0032080F3148817
:1043A00000BF00BF00BF00BF00BFBFF34F8F00BF03
:1043B00000BF00BF00BF00BF00BFBFF36F8F00BFD3
:1043C00000BF00BF23E0FF20BDE71548007800F0E4
:1043D000010098B9032080F3148800BF00BF00BF1C
:1043E00000BFBFF34F8F00BF00BF00BF00BF00BFC3
:1043F00000BFBFF36F8F00BF00BF00BF07E00848DA
:10440000007800F0010008B1FF209CE700BF00BF6A
:1044100000BFDFF810C000DF00BF94E7F800001015
:10442000B4680000E15E000030B589B004460D4676
:10443000FFF717F910B9FFF711F938B129462046EF
:10444000FFF76BFD06AB07C309B030BD00BF2946BF
:104450002046DFF810C000DF8DE8070003AB07C37C
:10446000F2E700007D5F000010B50446FFF7F9F8A1
:1044700010B9FFF7F3F808B1002010BDFFF7EBF813
:1044800000F0010030B90748007818B9204601F063
:10449000A0FDF2E700BF2046DFF80CC000DF00BF40
:1044A000EBE70000ED000010D35F000010B50446FC
:1044B000FFF7D7F810B9FFF7D1F808B1822010BD87
:1044C00000BF2046DFF808C000DF00BFF7E70000AC
:1044D0000960000070B505460C46FFF7C2F810B938
:1044E000FFF7BCF808B1822070BD00BF2146284606
:1044F000DFF808C000DF00BFF6E700003960000009
:104500002DE9F04106460C461546FFF7AAF810B90A
:10451000FFF7A4F810B10020BDE8F081FFF79BF889
:1045200000F0010040B90E48007828B92A4621461B
:10453000304601F0A5FDEFE74FF0FF310948006874
:10454000FFF7C8FF00BF2A4621463046DFF818C0F3
:1045500000DF074603480068FFF7A8FF3846DBE79F
:10456000ED000010E80000108160000070B5044606
:104570000D46002229462046FFF7C2FF70BD00000D
:104580004FF0FF3109480068FFF7A4FF00BFDFF8D4
:1045900020C000DF0446204601F008FE25462846DC
:1045A000DFF810C000DF00BFFEE70000E8000010E9
:1045B000216100003D6100001FB5044600BF204698
:1045C000DFF810C000DFCDE90001CDE9020104B041
:1045D00010BD00008161000086B000BF4FF0FF31C8
:1045E0000A480068FFF720FF01AB07C301981028B5
:1045F000F4D10298FFF7E0FFCDE904010498002808
:10460000ECD0DDE904108847E8E700002401001041
:1046100070B5044601F084FD05462A46214602A0F5
:10462000FFF797FB70BD0000525458206572726FFF
:104630007220636F64653A203078253038582C201A
:104640007461736B2049443A203078253038580A19
:104650000000000010B501F00DF910BD00BF0948C1
:1046600000684FF0E0214861002088610720086160
:104670000548006840F07F400349086000BF4817C4
:1046800070470000B068000020ED00E070470000B7
:1046900070B50D460446B0F1FF3F04D115220D4917
:1046A0000DA0FFF701FDA4F10050A0F51C200109A9
:1046B0000007C20E880000F1804000F5303001682C
:1046C0000323934099430160016805FA02F2114304
:1046D000016070BD686D000070696E20213D20286A
:1046E00050696E4E616D65294E43000070B50C46F1
:1046F0000546B0F1FF3F04D120221A491AA0FFF766
:10470000D3FCA5F10050A0F51C204209920002F153
:10471000804202F5303200F01F03D2F868C0C4F3C3
:10472000800101FA03F32CEA030CC2F868C0D2F846
:1047300068C04CEA03039366002918BF70BD0209E4
:104740000007C10E900000F1804000F53030026C8F
:1047500003238B409A430264026C04FA01F1114373
:10476000016470BD686D000070696E20213D2028D5
:1047700050696E4E616D65294E4300000A68B2F1C2
:10478000FF3F09D00A68824201D14868704751F85A
:104790000C2FB2F1FF3FF5D14FF0FF307047000012
:1047A000884208BF7047B0F1FF3F04BF084670471A
:1047B00010B5B1F1FF3F08BF10BD03A0FFF7C9FA64
:1047C0004FF0FF3010BD000070696E6D6170206D9C
:1047D00069732D6D617463680000000010B5B0F15D
:1047E000FF3F08BF10BD0A68B2F1FF3F0CD00A6856
:1047F000824204D14C68B4F1FF3F0AD106E051F87F
:104800000C2FB2F1FF3FF2D14FF0FF3402A0FFF7BF
:10481000A0FA204610BD000070696E6D6170206EB8
:104820006F7420666F756E6420666F72207065729B
:104830006970686572616C0010B50446B0F1FF3FA5
:1048400008BF10BD0868B0F1FF3F11D00868A04252
:1048500009D189682046FFF71BFF2046BDE81040BC
:104860000221FFF743BF51F80C0FB0F1FF3FEDD12C
:10487000BDE8104001A0FFF76CBA0000636F756CD3
:1048800064206E6F742070696E6F75740000000094
:1048900010B50648FFF7E8FD054A1061D2E90B01A3
:1048A000FBF792FCBDE81040FEF752BBF468000035
:1048B00020010010014600BF51E8000F10B9BFF3FE
:1048C0002F8F04E0036841E80032002AF4D100BFD2
:1048D0007047000070B504460D4694B14FF6FF7066
:1048E000844204D207490868214600F067FC054865
:1048F00000684570044800F007F90646304600F0AD
:1049000045FD70BD10010010CC02001010B512481A
:1049100000681249496888420BD0104840680E4927
:1049200008600846C0880E4909880844401E0A49A4
:104930008880094880880A49098889B288420AD152
:10494000002005490860054800F0DEF804462146CD
:10495000024800F061FC10BD00010010CC02001004
:104960001801001010B52048C06800B910BD1E48DD
:10497000808A401E1C4988822CE01B48C468A068BD
:1049800058B1D4E901014860606820B1D4E9011050
:104990008860002060600020A0602146134800F07D
:1049A0003BFCA08A104988826078042804D1E08A00
:1049B0000F4909880844A082012060700A49E06814
:1049C000C860E06820B10846E16808610020E06046
:1049D000002020610448808A18B90348C068002874
:1049E000CBD100BFC2E70000E4020010CC020010EF
:1049F0001801001010B504463CB9104800F084F8C6
:104A00000446204600F0C2FC17E0A0780C49096873
:104A1000897888420BDD0A49086800F01DFC0120F6
:104A2000074909684870204600F0B0FC05E0012005
:104A300060702146014800F0EFFB10BDCC02001071
:104A40001001001070B504460E46208B30432083C1
:104A5000658B6078062804D1208B2840A84200D1BD
:104A60000AE06078052818D1208B2840A8B1608B17
:104A7000218B0840608300BF208BA8432083204601
:104A800000F01CFC01206070628B0821204600F0C1
:104A90000DFC2146014800F0BFFB70BDCC020010A8
:104AA0000246914202D35068884201D801207047E3
:104AB00000BF00BF1068086000BF00BF00BFBFF3A9
:104AC0005F8F00BF00BF00BF52E8003F08689842F8
:104AD000F0D142E800100028EBD100BFE7E700006A
:104AE000012107E0481E064A52F8200008B908468E
:104AF0007047491C034800888142F3D90020F7E73A
:104B0000A40900109C6800000146486842684A6099
:104B10000A78022A05D00A78012A02D00A78032AE4
:104B200008D142681AB142689160002242600022B6
:104B3000826001E0002242607047014601F00300FC
:104B400008B1002070470846FCE7000070B5044635
:104B50000D4616460020207001206070A57084F874
:104B6000245000206060A060E06020612062A0828C
:104B7000E0822083608384F82500A06A18B9044885
:104B8000FFF798FE20633146204600F00FF870BD15
:104B90001007001000200349086003480088C880FF
:104BA0007047000000010010A468000070B50246C4
:104BB0000C46956AAB081BB91F4D2D88C5F38D03B4
:104BC000156B05EB830000F0040505B1001F4038AC
:104BD0004FF08075C5638463002103E0002540F831
:104BE0002150491C0E29F9D3D5690562D06254635E
:104BF000D578022D1FD0114D166B35600E4D2D68E6
:104C000005F08055BDB1112B15D9A3F11005012672
:104C1000C6EB550105E008384FF0CC35456005601E
:104C2000491E0029F7D1051F2846166BB54202D947
:104C30004FF0CC35056070BDA0680000A52E5AE28B
:104C400001460A46D0899389C01A70470A46014630
:104C500001230B7000234B708B704B600B814B81D9
:104C60008B81A2F11003C3F38F03CB817047000047
:104C70002DE9F04104460E466068002861D0607856
:104C8000012849D0022819D0032858D13046FFF70F
:104C900011FE074607B953E02046FFF735FF0546EA
:104CA0003946284600F0FCFA01206870284600F0DA
:104CB00005FB2946354800F0AFFA41E02046FFF7F2
:104CC00023FF05460021284600F0EAFA228904F174
:104CD0001000E96940F8221000BF04F10C00D0E890
:104CE0005F0F401C81B204F10C00C0E8521F002A83
:104CF000F3D12089401C80B22081E189884201D112
:104D00000020208101206870284600F0D7FA29464B
:104D10001E4800F081FA13E02046FFF7F5FE054635
:104D200032461021284600F0C1FA0120687028465A
:104D300000F0C4FA2946154800F06EFA00E000BF02
:104D400022E0A089E18988421BDA218904F1100060
:104D500040F8216000BF04F10C00D0E85F0F401C58
:104D600081B204F10C00C0E8521F002AF3D120895F
:104D7000401C80B22081E189884205D10020208139
:104D800002E00320FFF744FCBDE8F081CC020010F4
:104D90002DE9F0410546884616462C46A089002894
:104DA00042D0618904F1100050F82100C8F80000D9
:104DB0006089401C80B26081E189884201D1002075
:104DC0006081606800B3607802281DD12046FFF73B
:104DD0009BFE07460021384600F062FA228904F162
:104DE0001000F96940F822102089401C80B220810F
:104DF000E189884201D100202081384600F05EFA26
:104E00003846FFF7F7FD0CE000BF04F10C00D0E8D6
:104E10005F0F401E81B204F10C00C0E8521F002A4F
:104E2000F3D10020BDE8F0810EB90120FAE76068F7
:104E300028B10C480168204600F0EEF90BE0094863
:104E400000686060002007490968486005480068FC
:104E500084600120607008213046FFF73BFD01208F
:104E6000E0E7000010010010014609B9002070477A
:104E7000481C10B94FF6FF70F9E70C48814202D97F
:104E80004FF6FE70F3E70A4800684FF47A7303FBAD
:104E90000100401E064B1B68B0FBF3F24FF6FE709C
:104EA000824200D9E3E790B2E1E7000000093D004B
:104EB000C0680000014603220A7000224A804A604E
:104EC0008A60CA60704700002DE9F04107463C4601
:104ED000608820B14149A0680968884202D0FF205B
:104EE000BDE8F0816088401E80B2608008B100207B
:104EF000F6E73A480068056AA54204D13749E068F8
:104F0000096808620AE006E0E868A04202D1E068A9
:104F1000E86002E0ED68002DF6D100BF2F48006880
:104F200090F824802D480068056A09E0686830B16F
:104F300068688078404502DD686890F80280ED6816
:104F4000002DF3D12548006880F80280606870B3B6
:104F50002046FFF7D9FD06460021304600F0A0F9B3
:104F6000304600F0ABF901206080A660306AE06056
:104F700034621A48006880781949496889788842FB
:104F800003DB3046FFF736FD26E01448016814487D
:104F900000F042F93146124800F03EF901200F4975
:104FA0000968487070700020FFF724FD14E0FFE7E7
:104FB0000B484068807809490968897888420BDD88
:104FC00006480168064800F027F9012003490968EE
:104FD00048700020FFF70EFD002081E7100100104F
:104FE000CC02001070B505460E462C46608850B9BC
:104FF0001F480068A0601E480068006AE0601C4806
:105000000068046205E01A49A0680968884205D171
:1050100000BF6088401C6080002070BD0EB9012078
:10502000FBE7A0688078124909688978884207DA26
:105030000F4800688078A1688870A06800F016F9B1
:10504000606828B10A480168204600F0E5F809E0E8
:105050000748006860600020054909684860044806
:105060000068846009213046FFF734FC0120D4E752
:105070001001001070B501202549096848702449C5
:10508000086800F0E9F82348447832E02148001D20
:1050900050F83450287848B91E48001D00EBC40071
:1050A000808881B22846FFF7CDFC0EE028780128E1
:1050B00008D11848001D00EBC40041682846FFF7DE
:1050C000D7FD02E0284600F027F9601C044611498C
:1050D000C978884200D1002400BF0E48801CD0E867
:1050E0004F0F401EC1B20B48801CC0E8421F002A6F
:1050F000F3D1084880780028C8D106494C7006488A
:10510000FFF702FD0646304600F040F970BD000092
:105110001001001020090010CC0200100548007892
:1051200020B94FF080500449086002E00120034993
:10513000087070470C01001004ED00E00D01001034
:105140002DE9F04105460E461B48C178821C0346F6
:1051500000BF00BFD2E84F0F884202D1BFF32F8FAC
:1051600018E000F1010C0CF0FF08C2E84C8FBCF114
:10517000000FEFD100BFD3E84FCF6046471C8F42EE
:1051800000D1002707F0FF08C3E84C8FBCF1000FE7
:10519000F1D100BF04460848C078A04207D90648AC
:1051A000001D40F8345000EBC400466002E00220CD
:1051B000FFF72EFABDE8F0812009001070B50C460B
:1051C00023461449CD680DB9002205E0114DAA8A85
:1051D0000EE0CD684DB900BF0025C560C860016113
:1051E0009D1A8D820025858270BDC9688D8A2A44EA
:1051F0009A42EED3CD68C560C8600161C5680DB143
:10520000C5682861D51A85828D8A868AAD1B8D82F4
:1052100000BFE9E7E402001030B50A460024057833
:10522000022D05D00578012D02D00578032D00D17F
:1052300001249378416801E00846496811B18D78EE
:105240009D42F9D2516042601CB101B18A60906008
:1052500001E00025956030BD0349496841600021A7
:105260008160014948607047CC02001030B50546A6
:10527000A86820B9687801280FD1084C06E0AC680E
:1052800000E0A46820780028FBD000BF284600F08A
:1052900029F829462046FFF7BFFF30BDCC02001099
:1052A00000BFC36A20331A461160704710B500BFB3
:1052B000C46A2034234619605A6010BD016981B167
:1052C000C268CA60C26842B18A8A838A1A448A82E2
:1052D000C26811610022C26001E000228A820022BD
:1052E00002617047826842B1D0E901235A60426886
:1052F00012B1D0E901329A607047064906E04A6867
:10530000824202D142684A60F6E749680029F6D134
:1053100000BFF1E7CC02001070B50446606888B1A8
:105320002046FFF7F1FB05462846FFF7C7FF01209F
:10533000687001212846FFF7B3FF29460348FFF7AD
:105340006BFF02E06088401C608070BDCC020010E2
:1053500010B50C480068C078022811D009480068D0
:10536000C06A08490968096B884206D30548006885
:10537000006B00680449884202D00120FFF748F919
:1053800010BD000010010010A52E5AE210B5044611
:1053900008484460022060700748006840B1064831
:1053A0000068006920B1044AE06B126811698847FF
:1053B00010BD000010010010F800001010B500240E
:1053C00004E00020234941F82400641C224800889E
:1053D0008442F6D34022214801882148FEF7A2F9F1
:1053E0002048008880B240F000421F4801681F48F2
:1053F000FEF798F908221E4801881E480068FEF74B
:1054000091F9FF201C49C870002088621B4A0021C6
:105410001948FFF79BFB04201949087000204860D9
:105420000420184908700020C8600861888212486A
:10543000154908600220096848700F48FFF7A6FF69
:10544000002012490870487011480078C870FFF7B2
:10545000A1FB10BDA40900109C680000C8680000F2
:1054600040030010A0680000CC6800001007001086
:10547000F06800002C010010FC02001055460000EE
:10548000CC020010E40200101001001020090010EE
:10549000D068000010B500BF214A126842F47F02B4
:1054A0001F4B1A601A4612684FF07F4303EA02222C
:1054B000D243B2FA82F2C2F10800194A143A1268D1
:1054C000C2F30221814200D3481C154A121F1368FF
:1054D0006FF08072824063F31702114B1B1F1A603A
:1054E00000BFFFF7BBF80F490860084600680028B6
:1054F00014DBFF210B48006800F1E02080F8001465
:105500000848007800F01F0101208840054909681B
:105510004909890001F1E021C1F8000110BD000036
:1055200020ED00E00801001010B501200C490968C9
:1055300048700B490868FFF78FFEFFF7E7F9094845
:105540000068401C07490860FFF70CFA00F034FEC1
:105550000548FFF7D9FA04462046FFF717FF10BDAC
:105560001001001018010010CC020010014609B90A
:105570000020704701F0030008B10020F9E70A4657
:10558000107808B10020F4E71046F2E730B5024683
:1055900000230D4C206807E084688C4200D905E0A8
:1055A0008468091B034600680028F5D100BF10601D
:1055B000916018B184689568641B84600BB11A60AF
:1055C00001E0014C226030BDF00000102DE9F047F1
:1055D00080460D4691461F46E8B200B96D1C114841
:1055E000FFF768F9044614B90020BDE8F087C4F855
:1055F0003090280AA062FFF773FA06460EB9002021
:10560000F3E7E670E761A763E9B242462046FFF799
:105610009DFA701E044941F820402046FFF7EAF940
:105620003046E2E740030010A40900102DE9F041E4
:10563000064626B15C480068C078B04251D10020CF
:10564000594909684870FAF75EFE57490968C86207
:10565000FFF77EFE54480068046A23E06068D0B11A
:105660002046FFF751FA054600212846FFF718FEAD
:105670002846FFF723FE0120687029464B48FFF7B4
:10568000CBFDD4F80C8001206080A560286AE06022
:105690002C62444606E0D4F80C8000206080A060B4
:1056A000E0604446002CD9D100213F480068C07812
:1056B000401E3F4A42F820103B480068016B3D48BD
:1056C000FFF7EEF900203849096808633648016899
:1056D0003948FFF7E5F9002033490860FFF78AF9F8
:1056E00060E036480088864204D8701E304951F880
:1056F000200010B9FF20BDE8F081701E2C4951F840
:1057000020703846FFF7EEFD3846FFF7D7FD3C6ABC
:1057100023E06068D0B12046FFF7F6F90546002186
:105720002846FFF7BDFD2846FFF7C8FD0120687039
:1057300029461E48FFF770FDD4F80C8001206080D8
:10574000A560286AE0602C62444606E0D4F80C802C
:1057500000206080A060E0604446002CD9D1002188
:10576000701E134A42F820101248396BFFF798F95F
:105770000020386339461048FFF792F90B4840681B
:10578000807809490968897888420BDD012006493B
:1057900009684870044801680448FFF73DFD00208F
:1057A000FFF728F90020A6E710010010CC02001036
:1057B000A409001010070010400300109C680000AE
:1057C00070B506460C46D6B92048006884701F485C
:1057D000006880F8244000BF1D4840688078A042DF
:1057E0000BDD1A4801681A48FFF716FD012017491A
:1057F000096848700020FFF7FDF8002070BD1548CB
:105800000088864204D8701E134951F8200008B958
:10581000FF20F3E7701E104951F82050AC7085F856
:1058200024400A480068A84200D1D5E72846FFF77F
:105830001DFD6878012806D10548FFF765F9054682
:105840002846FFF7D7F80020D8E700001001001025
:10585000CC0200109C680000A409001004480068F5
:1058600008B90020704702480068C078FAE70000D5
:105870001001001002E0024800688047FBE70000CA
:105880001C0100100248006800F001007047000091
:10589000F0ED00E084B069461820ABBE04B070475C
:1058A0002DE9F05F0D46064600686349884204DD35
:1058B0009B22624962A0FEF7F7FB3068A0F18041AD
:1058C0006648B1F5404109D0B1F5804F11D0B1F52E
:1058D0000C2F1BD0B1F5102F23D02EE0D0F8A8113B
:1058E00021F0C001C0F8A811D0F8A81141F0400182
:1058F00009E0D0F8A81121F44071C0F8A811D0F83F
:10590000A81141F48071C0F8A81116E0D0F8AC11CC
:1059100021F44031C0F8AC11D0F8AC1141F4803121
:1059200009E0D0F8AC1121F44021C0F8AC11D0F856
:10593000AC1141F48021C0F8AC1149482A014FF064
:10594000000900684FF00108B0FBF2F1B0FBF2F380
:1059500002FB13028FB24946002A57D001222C467F
:105960004FF0000C924603E04FF0000C002A47D99C
:1059700002FB00FB4FF0004313EA4B0F0AD0530029
:105980000CEB020B43430BFB05FBB3FBFBF30AEBF6
:10599000131309E093000CEB020B43430BFB05FBD5
:1059A000B3FBFBF30AEB5313C3F34F03002B08BF06
:1059B0000123BCF1000F18BF022B38BF022300FBEC
:1059C00002FB0CEB020E0EFB03FE4FEACE0EBBFBFE
:1059D000FEFB0BF1010BD5EB5B0B48BFCBF1000BD2
:1059E000A34507DA5C461F469046E146AB4508BF33
:1059F000012105D00CF1010303F0FF0C9445B7D34E
:105A0000521CD2B2102A01D20029ADD03068017BDD
:105A100041F0800101733168380A087130680770FD
:105A2000316849EA081081F828003068017B21F0CC
:105A300080010173BDE8F09F00C00940C06D000007
:105A400028696E74296F626A2D3E75617274203CFC
:105A50003D20554152545F330000000000C00F400C
:105A6000E00000102DE9F0478846044617465349E8
:105A70004046FEF7B3FE054651493846FEF7AEFEF6
:105A800001462846FEF78CFE0546B0F1FF3F04D1E3
:105A90005C224C494CA0FEF707FBA5F180414E4823
:105AA0002560B1F5404104BFD0F8C41041F00801B1
:105AB00017D0B1F5804F04BFD0F8C41041F01001E9
:105AC0000FD0B1F50C2F04BFD0F8C41041F0807195
:105AD00007D0B1F5102F04BFD0F8C41041F0007109
