:020000040000FA
:10000000008000102D0200003502000037020000C1
:10001000390200003B0200003D0200000000000029
:100020000000000000000000000000006903000064
:100030004102000000000000E10300001D04000078
:10004000470200004702000047020000470200008C
:10005000470200004702000047020000470200007C
:10006000470200004702000047020000470200006C
:10007000470200004702000047020000470200005C
:10008000470200004702000047020000470200004C
:10009000470200004702000047020000470200003C
:1000A000470200004702000047020000470200002C
:1000B000470200004702000047020000470200001C
:1000C0004702000000F002F800F096F80AA090E85D
:1000D000000C82448344AAF10107DA4501D100F003
:1000E0008BF8AFF2090EBAE80F0013F0010F18BF3A
:1000F000FB1A43F001031847206800004068000025
:10010000103A24BF78C878C1FAD8520724BF30C843
:1001100030C144BF04680C60704700000023002415
:1001200000250026103A28BF78C1FBD8520728BF07
:1001300030C148BF0B6070476E2900F0DD84702924
:1001400000F01F86662906F05B81652906F058815C
:10015000672906F05581612906F0548103681B0A5E
:1001600028BF41F08001692900F08A84642900F0E9
:100170008784752900F084846F2900F0AC85782984
:1001800000F0EB85E92900F04785E42900F044857B
:10019000F52900F04185EF2900F0A985F82900F044
:1001A000EA850368DB0928BF41F08001632901F07B
:1001B0006585732901F06A85E32901F07585F329C6
:1001C00001F07A85002070471FB59DE8030000F01C
:1001D000BCFB02F05BF804000020002106F0A6F84A
:1001E000401C60600020002106F08AF8E06001F009
:1001F00003F800F07BFB1FBD03F0D4F8084B094C5B
:100200001860226003F04EF903F006FE05F0FEFCD4
:100210000548002103F0B2FF03F032FEFEE70000C4
:100220004C010010500100103801001006488047B2
:1002300006480047FEE7FEE7FEE7FEE7FEE7FEE7CB
:10024000FEE7FEE7FEE7FEE76D2C0000C5000000BC
:1002500000487047181400100B3020F0070070475A
:100260002DE9F04117460E460446FFF7F5FFA04280
:10027000054633D9002F1CBF06F10C0003F0CEF861
:1002800030467468F4B12168A94217D305F1080219
:1002900091423CBF6168416007D3626861194A605E
:1002A0002268521B0A6041602560002F1CBF06F1C6
:1002B0000C0003F0E9F8201DBDE8F08120466468D9
:1002C000002CE0D12946304600F02BFB0028D7D186
:1002D000002F1CBF06F10C0003F0D6F80020BDE88B
:1002E000F08110B5044600F013FB01682046BDE81C
:1002F00010400122B4E7704770477047FFFFFFFFCF
:1003000080F309887047EFF309807047684680F3EF
:10031000098804480078C00714BF0220032080F336
:10032000148870475C650000DFF818C0EFF30583A0
:100330001B0618BF6047EFF31483DB0708BF604755
:1003400000DF70470D450000DFF818C0EFF30583AC
:100350001B0618BF6047EFF31483DB0708BF604735
:1003600000DF704709470000EFF30980816911F849
:10037000021CF1B990E80F10E047EFF3098C8CE80C
:100380000700144B93E8060091420FD039B12CE9D5
:10039000F00FC1F82CC00CB404F0CEFE0CBC1A60F7
:1003A000D2F82CC0BCE8F00F8CF309886FF0020E75
:1003B000704710B5084A1268914209D8074C54F8A2
:1003C000214090E80F10A047EFF3098C8CE80F0054
:1003D00010BD000010010010582C0000582C000027
:1003E00004F0E4FC0C4B93E80600914210D0EFF3CC
:1003F000098C2CE9F00FC1F82CC00CB404F09CFE61
:100400000CBC1A60D2F82CC0BCE8F00F8CF3098841
:100410006FF0020E704700001001001004F078FF2A
:10042000E0E7000003F05EFF04F072FFDAE700008F
:1004300070B516460D46041F002808BF70BD002E7B
:100440001CBF05F10C0002F0E9FF2B46586800289C
:1004500018BFA04238BF0346F8D31968CA18A24291
:1004600018BF5C6003D122681C46114419602168E2
:100470000A19824218BF606004D142686260006855
:1004800008442060002E1CBF05F10C0002F0FCFFA8
:1004900070BD10B5044600F03BFA01682046BDE887
:1004A00010400122C4E700001CB50C46064B7B44FB
:1004B00069460090204600F038FB0446002069465B
:1004C00000F046FB20461CBD9F0600000FB400B59F
:1004D0008DB010A9099000910B904FF0FF300A9059
:1004E00000200C90064878440690064878446A46F6
:1004F00007900F9909A800F027FD0DB05DF814FBD7
:100500007F0A0000970A00002DE9FF5F1D464FF0AB
:10051000FF3B91464FF000085F46D5E90146A969C7
:1005200001987F1C8847296A824688470028F6D1AF
:10053000BAF1FF3F0CD0002E24F4C06419DD600630
:1005400014D5BAF12B0F09D0BAF12D0F0ED103E05B
:10055000584604B0BDE8F09F44F48064A96901984E
:100560007F1C8847761E8246002E02DDBAF1300FCE
:1005700003D0B9F1000F26D032E0A969761E0198A8
:100580007F1C44F400748847002E824605DDBAF1D2
:10059000780F06D0BAF1580F03D0B9F1000F10D080
:1005A0001EE0B9F1000F02D0B9F1100F18D1A969FE
:1005B000761E01987F1C24F4007488478246102020
:1005C00002E0082000E00A20814609E0A96908FB52
:1005D0000908761E01987F1C44F4007488478246FF
:1005E000002E05DD4946504600F09AFC0028EDDA61
:1005F000E96901988847A00502D46FF00100A8E7D7
:10060000E00725D1600613D5600502D5C8F10000CA
:1006100000E0404629680A1D2A600968220501D5C4
:10062000087015E0220701D5088011E008600FE08E
:100630002868011D29600068210502D580F8008026
:1006400006E0210702D5A0F8008001E0C0F8008094
:1006500038467EE72DE9F041044600F14C07384664
:1006600002F0DCFEE068810712D0800601D5A66AA0
:1006700004E0A169606808442169461A204600F038
:1006800043FD002205463146204600F08DFC00E087
:100690000025384602F0F8FE2846BDE8F0812DE935
:1006A000F04118B1BDE8F041FFF7D4BF0B4E002573
:1006B000304602F0B3FE0A4C6F1E07E02046FFF7FB
:1006C000C9FF00B13D46206D20F00104002CF5D19A
:1006D000304602F0D9FE2846DFE700008001001016
:1006E0007814001010B5431C02E010F8011B71B122
:1006F0008107FAD14FF0013202C88C1A8C4314EAF8
:10070000C211F9D0C01A0A0603D0C01E10BDC01A0B
:1007100010BD0A0401D0801E10BD0902FCD0401E8D
:1007200010BD40EA010370B59B072ED14FF0013692
:10073000042A2AD308C810C99D1B9D43121F15EA1D
:10074000C61517D0D8B2E1B2401A50EA056110D1EF
:1007500098B2A1B2401A50EA05410AD123F07F4075
:1007600024F07F41401A50EA052102D1180EA0EB77
:10077000146070BDA342DBD018BA21BA884201D9F7
:10078000012070BD4FF0FF3070BD0AB9002070BD70
:1007900010F8013B11F8014B63B1A3420AD1521E7C
:1007A00008D010F8013B11F8014B1BB1A34201D155
:1007B000521EEDD1181B70BD10B5203AC0F00B8051
:1007C000B1E81850203AA0E81850B1E81850A0E855
:1007D0001850BFF4F5AF5FEA027C24BFB1E81850AF
:1007E000A0E8185044BF18C918C0BDE810405FEA1F
:1007F000827C24BF51F8043B40F8043B08BF70479B
:10080000D20728BF31F8023B48BF11F8012B28BF9F
:1008100020F8023B48BF00F8012B70474FF0000260
:1008200000B5134694469646203922BFA0E80C50E6
:10083000A0E80C50B1F12001BFF4F7AF090728BFC1
:10084000A0E80C5048BF0CC05DF804EB890028BF3D
:1008500040F8042B08BF704748BF20F8022B11F066
:10086000804F18BF00F8012B704700004FF0013C8B
:1008700050F8042B51F8043B9A4221D1A2EB0C030F
:10088000934313EACC1317D150F8042B51F8043BCF
:100890009A4215D1A2EB0C03934313EACC130BD16C
:1008A00050F8042B51F8043B9A4209D1A2EB0C03F7
:1008B000934313EACC13DBD04FF00000704700BF26
:1008C000D01A01BAB1FA81F101F0180122FA01F04F
:1008D000CB40C1F12001DBB2C0B2C01A2CFA01F347
:1008E000D11A914311EAC311E6D1704770B5064C95
:1008F0007C44064D7D4403E0206820448047241D4D
:10090000AC42F9D170BD0000706100007061000060
:1009100010B5FFF79DFC083010BD70477047704759
:10092000704738B504460A4600206946AFF3008098
:10093000002808BF38BD02460099204600F040FD5F
:10094000012038BD012001F08BBCF8B5AFF3008069
:10095000054600200C46102000BF0646A819A042FC
:100960000DD9324669460020AFF30080070008BF6A
:1009700001F076FC0098A04218BF0546C419FFF7A5
:10098000C7FF05600746F01D20F0070046192846FE
:1009900000F00AF8B44208BFF8BDA21B314638681F
:1009A000BDE8F84000F00CBD00210160C0E9011075
:1009B0000C3002F043BD1020704770B504468569C5
:1009C0000068C10601D5302600E02026C00707D008
:1009D00070BDD4E9012130469047206A401C206256
:1009E0006D1EF6D570BD70B5044685690078C007E8
:1009F00007D170BDD4E9012120209047206A401C16
:100A000020626D1EF6D570BD09684A0501D540B259
:100A10007047C905FCD500B2704709684A0501D581
:100A2000C0B27047C905FCD580B2704770B50C469E
:100A30000546012A05D02878800600D5EA690023FA
:100A400002E0012305E05B1C934202D2E05C002837
:100A5000F9D1A869E618C01AA861286A1844286262
:100A60002846FFF7AAFF04E0D5E9012114F8010B9D
:100A70009047B442F8D32846FFF7B5FF70BD000099
:100A80002DE9F0410646002410687529314616A567
:100A900010D0FFF7B9FF002802DA404213A507E0A3
:100AA00031688A0701D512A502E0490704D511A5CE
:100AB000012401E0FFF7B1FF00210A2206F124071B
:100AC00009E0B0FBF2FCB0FBF2F302FB1C0030309B
:100AD00078541846491C0028F3D123462A4630464C
:100AE000BDE8F04100F0D9BC000000002D0000007E
:100AF0002B0000002000000011680268006A530506
:100B000001D508700AE0D30501D5088006E0130678
:100B100003D5C217C1E9000200E008600120704758
:100B200001694A1C02610878704700B58FB0CDE9B1
:100B300001310021059105497944CDE903101146A1
:100B4000684600F029F90FB000BD0000E5FFFFFF87
:100B50000A6802F8010B0A60704700002DE9FF5F88
:100B600015468A460446DFF8AC80F8440027D8E9E9
:100B700000103E46CDE9001010E03AF816106A4623
:100B800002A801F041FB411C07D02178890603D55A
:100B9000E269391891420DD80744761C2078800606
:100BA00002D5E069B84205DDAE42E6DB3AF8160050
:100BB0000028E2D1A069C01BA0612046FFF7FDFE1E
:100BC000D8E90010CDE90010002017E03AF818101D
:100BD0006A4602A801F018FBB0F1FF3F81460BD036
:100BE00000250DF1080B05E0D4E901211BF80500F3
:100BF00090476D1C4D45F7D308F10100B042804687
:100C0000E4DB206A384420622046FFF7ECFEBDE8B2
:100C1000FF9F00004E5A00002DE9F0418046D21D92
:100C200022F007020025D2E90002F52915A614D00A
:100C3000011E72F1000106DA0023D0EB030063EB22
:100C4000020211A608E0D8F800108B0701D50FA604
:100C500002E0490701D50EA601251146002408F13E
:100C6000240704E000F0CBFB30323A55641C50EA14
:100C70000102F7D12B46324621464046BDE8F041FD
:100C800000F00BBC000000002D0000002B00000055
:100C90002000000030B4002100F1240408E002F03C
:100CA0000705D208303542EA4372DB086554491C17
:100CB00052EA0305F3D10468002310A2250707D5E3
:100CC000A40600D421B1C46901230DA2641EC4612D
:100CD00030BC00F0E2BB10B5044621461068FFF7B7
:100CE0009CFE02462046BDE810400023D2E7D21DFC
:100CF00022F00701D1E90023CCE70000000000004A
:100D000030000000F0B40D460188090502D5214CE1
:100D10007C4402E01F4C7C440E34002100F1240688
:100D200008E002F00F071209E75D42EA03721B09AF
:100D30007754491C52EA0307F3D1027800231207C3
:100D400004D5702D06D009B1022311342246F0BC1F
:100D500000F0A3BB01231034F8E770B504460D463C
:100D600021461068FFF759FE024629462046BDE895
:100D700070400023C6E7D21D22F00703D3E9002309
:100D8000C0E70368126843F0200303600823C361CF
:100D90000023B7E7B05800002DE9F05F894604460C
:100DA0004FF0000ADFF874B1FB44C0F820A02046E1
:100DB000E1688847002874D0252806D0D4E90121AD
:100DC0009047206A401C2062F1E700265F462046DB
:100DD000E16888472028054607DB312D05D27819C0
:100DE00010F8200C08B10643F1E7B00701D526F052
:100DF0000406C4F81CA00027C4F818A02A2D09D0A6
:100E0000284602F003FB38B304EB8708303DC8F8EE
:100E1000185019E059F8041B204604EB8702916131
:100E2000E1688847012F054618D1E069002820DADB
:100E300026F020061DE0D8F8180000EB800005EB36
:100E400040003038C8F818002046E1688847054659
:100E500002F0DCFA0028EED1012F0AD02E2D08D1A5
:100E60002046E16888477F1C0546022F46F0200691
:100E7000C4DBA069002803DA404246F00106A06105
:100E8000F00701D026F010066C2D0BD0682D09D08C
:100E90004C2D39D06A2D35D0742D35D07A2D33D0E4
:100EA00016E038E0E1682F4620468847B8420546FC
:100EB00009D16C2F26D04FF48060E16806432046AC
:100EC0008847054604E06C2F1AD04FF48070064323
:100ED0000DB3A5F14100192802D8203546F400666B
:100EE0004A462946204626604E46FFF725F980B13E
:100EF00001280BD0F61D26F0070000F1080956E77F
:100F00004020E4E78020D8E70020D6E706F1040976
:100F10004DE7284652E7206ABDE8F09F40580000A0
:100F20003A2800D2303820F02002412A01D3A2F121
:100F30003700884201D34FF0FF30704702681144F8
:100F40001378016018467047D160054979445161B2
:100F500004497944116200211161114600F0B0BECC
:100F6000EDFFFFFF33050000426842B1016811F850
:100F7000013B23B1521EC0E90012184670470121FF
:100F8000C160881E704742685AB1C368016843B99E
:100F900083688B4205D0491E521CC0E90012002014
:100FA00070474FF0FF3070472DE9F0410446164678
:100FB0000D464769007B80072ED0384602F0A0FA24
:100FC00050BB3EB3012E02D0022E25D104E02046B4
:100FD00001F030F805441DE0384602F07DFAE16882
:100FE000002841F01001E16005DA204600F058F8D1
:100FF0000120BDE8F081C9030BD56268E16A914226
:1010000000D81146A26911442269891A814200DD83
:1010100008460544002D01DA0220EAE7E16A60682B
:10102000E268814206D29103E06203D522F40031E6
:1010300041F01002A6690027AE4213DCE16A81424A
:1010400001D90B4600E0034603EB060C2369ACEB29
:10105000030CAC4506DD814201D98C4600E0844694
:101060009C4505D1A760276042F02000A5620DE0F5
:10107000AD1BE669AE1B8142A66000D90846C01AC6
:10108000281A20605819606022F0200003490840A7
:10109000E060002084F84870ABE70000BFCFD7FFC6
:1010A000C16821F4001141F08001C160002181601C
:1010B000016070472DE9F047814614460E464FF017
:1010C000FF383248D5685769054209D03846A169CA
:1010D00002F01CFB002811DB2C48C0430540E560F2
:1010E0002B4632464946384602F024FBA16920F0DF
:1010F0000042B21A11440028A16103D02046FFF734
:10110000CFFF4046BDE8F08770B504460569C06A68
:101110006168884200D80846E16821F42011E16046
:10112000C90312D5A84208D02246411B2846FFF722
:10113000C1FF10B14FF0FF3070BD0020E562C4E97F
:101140000150E06820F48030E060002070BD10B5F0
:101150000446C06820F02000E060A16AA0698842CF
:101160000DD02046FFF7D0FFE06820F4405040F05B
:101170001000E060A06AA0612069E062606044F253
:101180004001E0688843E06010BD000010000200EC
:101190002DE9F04704461E4690460D46C7684C3080
:1011A000814602F03BF9B80714D0780212D44046C9
:1011B000B8F5807F09D0B0F5007F06D0B8F5806F14
:1011C00008D1012604F1240506E0701E6FF07F416E
:1011D000884201D3012409E02561E6616560E06889
:1011E00020F4706040EA0800E0600024484602F005
:1011F0004BF92046BDE8F08710B565485421FFF74C
:101200000DFB64485421FFF709FB63485421FFF7A5
:1012100005FB62485E49624A624B01605D481060AE
:101220005D4A1A60431C0B65511C01650120106565
:1012300057484C3002F002F956484C3002F0FEF8A4
:1012400055484C3002F0FAF8574802F0F7F8584881
:101250004F4A56A1784400F08CFF20B95448784496
:101260000A3800F0F6FF54484A4A52A1784400F088
:1012700080FF20B9504878440A3800F0EAFF4F4810
:10128000454A4CA1784400F074FF20B94B4878449B
:101290000A3800F0DEFF40233D48DC0000212246F2
:1012A000FFF776FF20B142487844543800F0D1FF70
:1012B0003848224640230021FFF76AFF20B13E480C
:1012C0007844543800F0C5FF3348224610230021EB
:1012D000FFF75EFF002806D038487844BDE810408C
:1012E000563800F0B6BF10BD2B482DE9F041006D17
:1012F0002D4E20F00104304602F090F8244D4C357C
:10130000284602F08BF8224800F0B5FE284602F08D
:10131000BBF82846AFF300801E4D4C35284602F03E
:101320007DF81C4800F0A7FE284602F0ADF82846DC
:10133000AFF30080184D4C35284602F06FF8164880
:1013400000F099FE284602F09FF82846AFF300808F
:1013500014E0206D20F0010504F14C00074602F076
:101360005DF8204600F087FE384602F08DF83846DA
:10137000AFF300802046FFF78CF82C46002CE8D114
:10138000304602F081F80848AFF30080BDE8F081F4
:1013900078140010CC1400102015001074010010F7
:1013A000780100107C010010800100107200000024
:1013B000B0510000770000009F5100008F510000E5
:1013C00030B404468C464368002B18BF634538BFD1
:1013D0001846F8D303681844604507D0C81C20F0AD
:1013E000070000F1040CACEB0100121A2146CCF806
:1013F000002030BC00220CF10400FFF719B830B512
:10140000B0F10A024FEA900E71F100034EEA817EBC
:10141000B0EB0E0061EB91014FEA101E4EEA017E27
:1014200010EB0E0041EB11114FEA102E4EEA016E47
:1014300010EB0E0041EB11214FEA104E4EEA014E27
:1014400010EB0E0041EB1141401841F100014FEA51
:10145000D00040EA41704FEAD10110EB80054FEA1D
:10146000810444EA907444EB01046D1944EB0404D4
:10147000521BA3414FF0000348BF0A3200D530BDD4
:10148000401C41F1000130BD10B5044600F0F6FEED
:101490000068005D00F0010010BD2DE9F0470D4629
:1014A00099469246044600F124080168880604D54E
:1014B000E06921F01001216000E00120A84201DD77
:1014C000471B00E00027A1697A1902EB0900081AFE
:1014D000A0612078C00602D42046FFF76EFA0026ED
:1014E00008E0D4E901211AF806009047206A401C60
:1014F000761C20624E45F4DB2078C0060AD52046D3
:10150000FFF75BFA06E0D4E9012130209047206A1A
:10151000401C2062381EA7F10107F4DC07E0D4E983
:10152000012118F805009047206A401C2062281EFF
:10153000A5F10105F3DC2046FFF755FA20780006F7
:1015400002D50220BDE8F0870120FBE770472DE9B6
:10155000FF4F0C461E464FF0FF378BB0D2E900011B
:10156000DDF860800A908A46C1F30A5505B93D4608
:10157000002108464FF00000BAF1000F00F44000CF
:1015800005DA00EB80004FF4400101EA50004FEA19
:101590009059B9F1010F00DDB9460A9850EA4A00A6
:1015A0000ED044F61050A5F2FF3545432F14B8F184
:1015B000000F1ED07542291E1EDDC9F100021CE07D
:1015C000B8F1010F4FF0000001D0302103E0F243E9
:1015D00005E02154401CB042FBDB304600220021D4
:1015E00021540B99C1F80880C1E900200FB0BDE873
:1015F000F08FBD1B6D1CDEE74A4600DA694206A883
:1016000000F08CFE06AB93E8070003AB83E807000D
:1016100050460A9900F058FF8DE80700A0F50050E9
:101620001F3800900398002D0ADD42F21F014A4640
:101630000844002303A90390684601F0C1F909E0BA
:10164000A0F500504A461F38002303A903906846BE
:1016500001F0CBF98DE807000004000C03D04FF037
:10166000FF30410800E01046B8F1000F03D000221F
:10167000009215461EE0751E05D4FFF7C0FE3032FD
:1016800062556D1EF9D5B3460122084302D00022EF
:101690007F1C04E02078302801D100227F1E002A20
:1016A000099784D01DE0112D07DAFFF7A8FE30322C
:1016B00062556D1C50EA0102F5D1084302D0009832
:1016C000C8B10EE00021681E05E0235C625C635433
:1016D0002254401E491C8142F7DBAB46A81B401E2A
:1016E0000990002004F80B000B98099AC0F80880B4
:1016F000C0E9002B7AE711264FF0000857E72DE9E3
:10170000F04F88460446D21D22F0070191B0D1E97E
:101710000001CDE90A0101F0ADFD02460B98C00FB2
:1017200001D02D2007E02068810701D52B2002E0A1
:10173000202101EAC000032A099001D0072A05DB15
:1017400003464146204600F0A9FD0BE120788006C3
:1017500001D5E06900E00620B8F1650F814606D0AA
:10176000B8F1660F18D0B8F1670F70D131E00020E2
:10177000B9F1110F009001DB112301E009F1010320
:101780000AAA01A90CA8FFF7E2FEDDE90C70002609
:1017900009F10105834647E001204B4600904FF0D8
:1017A00000470AAA01A90CA8FFF7D1FEDDE90DB098
:1017B0000C995D46002610B909F101000D18B9EB2E
:1017C000050003D4C0F1FF3609F10105A5EB0900BE
:1017D0002BE0B9F1010F01DA4FF001090020B9F156
:1017E000110F0090484601DD112300E003460AAACC
:1017F00001A90CA8FFF7ABFEDDE90C704D460026F1
:101800008346207800070AD4AB4500DA5D4601A87C
:10181000012D04DD411911F8011C302907D04F4575
:1018200002DA17F1040F04DA012082460FE06D1E80
:10183000EEE7002F02DCED1B3E4403E0781CA842DB
:1018400000DD7D1CB81B00F1010A4FF00047207835
:10185000000703D4AA4501DB4FF0FF3A0021B7F19E
:10186000004F0DF143088DF8431024D002202B23A4
:10187000002F01DA7F422D230A21021EA0F1010070
:1018800000DC5FB197FBF1FC97FBF1F201FB1C7CE4
:1018900017460CF1300C08F801CDEEE7A8F1010075
:1018A00003702188090501D5452100E06521A0F1DB
:1018B000010800F8011C09980FA9A1EB0807FF1DFA
:1018C00000B10120411901EBEA70A1693844081AFE
:1018D000401EA0612078C00602D42046FFF76DF8B4
:1018E000099828B1D4E901219047206A401C206260
:1018F0002078C00622D52046FFF75FF81EE0002EB4
:1019000004DBB34502DD01A8805D00E03020D4E9AE
:1019100001219047206A401C2062761CAAF1010038
:101920005FEA000A0AD100F0B1FCC0680168405CBF
:10193000D4E901219047206A401C2062281EA5F1AD
:101940000105DCDC07E0D4E9012118F8010B904720
:10195000206A401C2062381EA7F10107F3DC2046F4
:10196000FFF741F8032011B041E600002DE9F04FE8
:1019700004460D46D21D22F0070089B0D0E9009739
:101980004846394601F076FC0246F80F01D02D2377
:1019900007E02068810701D52B2302E0202101EA1E
:1019A000C0038DF820300BB1012000E00020032A95
:1019B000824601D0072A04DB2946204600F06EFC4F
:1019C0003FE12078800601D40D2500E0E569C7F3EA
:1019D0000A560D2D49DA00214FEA175B08464FF0F1
:1019E0000000002F00F4400007DA00EB80004FF405
:1019F000400100EBD07001EA60008115012901DD92
:101A00004FF0FF3100224FEA850CBCF1180F06D3CE
:101A10001346ACF118004FF08052C24003E04FF47F
:101A2000801323FA0CF30CF10C0CBCF1200F04D33F
:101A3000ACF1200C09FA0CF001E007FA0CF00029D7
:101A40004FF0004801DD18B90FE00ED140450CD32E
:101A500019EB02095F4121B9404502D19F4329EAB0
:101A60000209BBEB175F00D0761C2088000502D569
:101A70007B48784402E07A487844193808AA302331
:101A800002F80A30037C0AF10101002E0AF1020A71
:101A900053546A4602DC4FF0300101E04FF031014F
:101AA0004FF001088DF8001002D0A6F2FF3603E0D7
:101AB00059EA470100D06B4E002D02DC217809075E
:101AC00004D54FF002082E218DF80110C4460021E4
:101AD0000BE0C7F303433F01C35C491C6D1E02F8D2
:101AE0000830052908F1010801DA002DF1DC002198
:101AF0000CE000EB1973491C1B786D1E082902F8D5
:101B000008304FEA091908F1010801DA002DF0DC6C
:101B100021688B0602D516E0A8F10108E04505DD35
:101B200002EB080313F8013C302BF5D0B8F1000F9D
:101B300009DD02EB080313F8013C2E2B03D1090742
:101B400001D4A8F10108002D05DD3E2102F808109E
:101B50006D1E08F10108407C002E02F8080008F113
:101B6000010804DA2D20764202F8080002E02B205A
:101B700002F808000A214FF47A70864208F1010841
:101B80000BDB96FBF0F3303302F8083096FBF0F3F2
:101B900008F1010800FB136601E0642E0CDB6420F1
:101BA00096FBF0F3303302F8083096FBF0F308F1BF
:101BB000010800FB136601E00A2E06DB96FBF1F03C
:101BC000303002F8080008F1010896FBF1F001FB43
:101BD0001060303002F80800A16908F1010808EB34
:101BE000050202EB0A00081AA0612078C00602D4A0
:101BF0002046FEF7E2FE216A08AE01EB0A002062F1
:101C000004E0D4E9012116F8010B9047BAF1010A6A
:101C1000F7D22078C00602D52046FEF7CEFE6E46EB
:101C200009E016F8010B3E280FD0D4E901219047B6
:101C3000206A401C2062B8F10108F2D22046FEF76B
:101C4000D2FE09B00320BDE8F08F206A284420624C
:101C500003E0D4E90121302090476D1EEBD3F8E773
:101C60009A4B000002FCFFFF10B5436913B1AFF3BC
:101C7000008001E0FEF7DAFE012010BD127800F1CD
:101C800024010A7000224A700122EDE711684FF02A
:101C9000FF32E9E710B5436913B1AFF3008001E00B
:101CA000FEF75CFF012010BD128800F12401828440
:101CB0000022C2840122EDE711684FF0FF32E9E70C
:101CC0002DE9F34F4FF0000A0C4656468DB0012027
:101CD0000C9001F10C000B9062690B980121904768
:101CE000051E2DD0252D2CD0216A8847C0B16269F0
:101CF0000B9801219047216A88470028F7D1626933
:101D0000411E0B98904700E0761CA1690D9888470A
:101D1000216A88470028F7D1E1690D988847DBE7F9
:101D2000A1690D988847A842074601D1761CD3E7E0
:101D3000E1690D9888477F1C02D1BAF1000F6FD07E
:101D40006BE162690B9800273D46394690472A2887
:101D500004D162690B98012190470125DFF8D082F8
:101D600062690B9801219047A0F130010A290AD23B
:101D70004745E5DC07EB870100EB4107303FDFD447
:101D800045F01005ECE7E90601D46FF000476C2838
:101D90000AD04C2814D0682815D06A280DD0742891
:101DA0001CD07A281AD01DE062690B980121904757
:101DB0006C2802D045F0040514E045F002050DE062
:101DC00045F020050AE062690B98012190476828D8
:101DD00002D045F0080505E045F4006562690B98FE
:101DE00001219047C4E9015765283DD019DC5828E6
:101DF0007AD00CDC452837D004DC252826D04128B1
:101E00009ED131E046282FD0472899D12CE05B287D
:101E100077D0612828D063287CD0642823D15AE069
:101E2000F6E06F2848D008DC66281DD067281BD054
:101E3000692821D06E2816D127E0702845D0732854
:101E400068D0752847D078280DD14DE0A1690D984C
:101E50008847252805463FF469AFE1690D98884712
:101E60006D1C3FF46AAFD8E00D9923466A466FF0C7
:101E70000100AFF30080C5E045F0400023464FF07D
:101E800000026060A80736D43EE0E8077FF447AF61
:101E90002068011D21600068290501D506701BE737
:101EA000290701D5068017E7A90703D5F117C0E96F
:101EB000006111E706600FE745F0400023464FF050
:101EC00008026060A80716D41EE040F60E0125EA5D
:101ED0000100606016E045F0400023464FF00A0222
:101EE0006060A80707D40FE045F040006060A807D5
:101EF00008D5234610220D996FF00100AFF3008042
:101F000080E007E0102223460D996FF00100FEF7F4
:101F1000FBFA77E04FF0000963284F46C8464B466E
:101F2000CB4602D05B2806D038E0E80601D4012079
:101F3000A060012732E06269D4F80CB00B9801214F
:101F400090475E2807D14FF0010949466269D4F8ED
:101F50000CB00B989047216939B900210A4603ABB0
:101F600043F82120491C0829FADBD8B3216949B379
:101F700008F1010862690B98012190475D28F4D1AE
:101F8000B9F1000F09D0002003A951F82020D24355
:101F900041F82020401C0828F7DB03AB206900280B
:101FA00020794FEA40701ED05B462246CDF8008073
:101FB000CDE901970D9900286FF0010020DAAFF309
:101FC00000801FE0C11703AA00EBD1614B1121F083
:101FD0001F0102EB8302411A13680120884003436A
:101FE0001360C7E719E00D99224600286FF0010041
:101FF000009702DAAFF3008004E0AFF3008001E065
:10200000AFF3008000280ADA401C06D10C9820B1FA
:102010004FF0FF300FB0BDE8F08F5046FAE7E90708
:1020200001D10AF1010A064400200C9054E6000098
:10203000CCCCCC0C10B50146C268900703D09006FA
:1020400007D5886A0AE000F026F901210160881EA0
:1020500010BD8B69486818440B69C01A91F8483064
:102060001BB191F84910401A10BD1103FCD500288E
:10207000FADD401E10BD2DE9F04704464FF000097F
:102080004FF0FF37C568D4E90486A80707D020467B
:10209000FFF73AF8304601F009FA002802DA38462C
:1020A000BDE8F087280502D54046FEF7F2F94C213D
:1020B0002046FEF7B3FB206D20F001002065484666
:1020C000EEE700002DE9F04716468846814602F10A
:1020D0004C07384601F0A2F93046FFF7CCFF18F85C
:1020E000010B61280AD0722802D077283FD102E084
:1020F0000125002405E00225042402E0082448F21A
:10210000020518F8010B2B2806D0622809D018F810
:10211000010C74280AD00BE045F0030544F00204DA
:10212000EFE745F0040544F00104EAE744F0100449
:102130004846214601F0F8F9411C18D000213161D0
:1021400071604FF40071F560F1617061200704D592
:10215000304602220021FEF727FF306D40F00100DB
:102160003065384601F090F93046BDE8F08700262A
:10217000F7E72DE9F04115460E460746204C20466C
:1021800001F04CF92A4631463846FFF79BFF0546D9
:10219000204601F079F92846BDE8F0812DE9F041AB
:1021A0000E468046164D284601F038F9154C206D34
:1021B000C10704D0410804D020F00104F7E722460B
:1021C00012E05420FEF78DF8070017D0206D47F07D
:1021D00001010843542120653846FEF71FFB07F133
:1021E0004C0001F02BF93A4631464046FFF76AFFB2
:1021F0000446284601F048F92046CDE70024F8E7D8
:10220000800100107814001070B516460C46054683
:1022100000F034F8036893F80101012806D0FF2C80
:102220000FD8185D68B101202C7070BDD3F807017C
:102230003246214603F2071303442846BDE87040A6
:1022400018474FF0FF3070BD002801D000F010B8E3
:10225000704710B500F0EEF8BDE81040FFF7F4BF8E
:1022600010B500F001F9BDE81040FFF7EDBF000028
:1022700001491820ABBEFEE72600020010B500F0B1
:1022800005F8001D10BD00BFA540000010B5FDF70A
:10229000DFFF203010BD01F06FB800002DE9F041E4
:1022A0001F46044603260168072A01F4006004DB88
:1022B00008B116A505E016A503E008B115A500E0D4
:1022C00015A521F010002060A069C01EA0610FB10B
:1022D000401EA0612046FEF770FB4FB1D4E90121FA
:1022E00038469047206A401C2062C01C206206E0ED
:1022F000206AFAE7D4E9012115F8010B9047761E10
:10230000F8D22046FEF76FFBBDE8F0814E414E004B
:102310006E616E00494E4600696E66002DE9F04719
:10232000814616468AB0354878440DC88DE80D00C0
:1023300032487844801C03AC0DC884E80D0041F697
:102340009B300844372190FBF1F290FBF1F5A5F1A9
:10235000800501FB12041B3C02D56442012000E011
:102360000020DFF898A080460027FA44AAF1BE0AB0
:102370000EE0E0070AD03246684607EB470101232A
:102380000AEB810100F031FB8DE8070064107F1C2F
:10239000002CEED1194F7F44AE3F19E0E80715D06D
:1023A00007EB04100DF1180A90E80E008AE80E0001
:1023B000C068F04201D1981908903246012306A95D
:1023C00003A800F012FB03AB83E807006D10641C48
:1023D000002DE3D14FF0010332466946B8F1000FFA
:1023E00003A802D000F0ECFA01E000F0FEFAC9E91F
:1023F0000001C9F808200AB0BDE8F0877443000066
:1024000070B505460C460A2000E06D1C00F054F83B
:1024100035B128780028F8D102E0641C00F04CF8AF
:1024200014B120780028F8D1BDE870400A2000F0EF
:1024300043B8000010B5014602A0FFF7E1FF0120FC
:1024400010BD000053494752545245443A2052654A
:102450006469726563743A2063616E2774206F70DB
:10246000656E3A200000000010B5012805D000215B
:1024700003A0FFF7C5FF012010BD09A1F8E7000088
:1024800053494752544D454D3A204F7574206F665D
:102490002068656170206D656D6F727900000000C5
:1024A0003A2048656170206D656D6F727920636FA9
:1024B000727275707465640008B569468DF8000025
:1024C0000320ABBE08BD70475FEA400C08BF91F027
:1024D000000F4FEA8C234FEAC12243EA51514FEAE1
:1024E0001C5018BF00F5F0404FEA300018BF41F013
:1024F00000415FEA6C5C00F02980BCF1FF3F08BF3F
:1025000040F080407047130C06BF12044FF0100CCF
:102510004FF0000C130E04BF12020CF1080C130F45
:1025200004BF12010CF1040C930F04BF92000CF1D4
:10253000020CD30F04BF52000CF1010C11464FF0F6
:102540000002A0F11F00A0EB0C00704711F0004F3B
:1025500008BF704731F000413FF4D5AF0B0C06BF08
:1025600009044FF0100C4FF0000C0B0E04BF0902D1
:102570000CF1080C0B0F04BF09010CF1040C8B0FBC
:1025800004BF89000CF1020CCB0F04BF49000CF111
:10259000010CCCF12003A0EB0C0022FA03F302FAA9
:1025A0000CF241EA030100F10100704720F07F4C7A
:1025B00080EA030023F07F47ACEB070303F57C536D
:1025C00000F0004003F1FF032DE980494FEA154B6D
:1025D00009B44FEA144325EA0B4E24EA03480FF2EC
:1025E000042606EB132749083E785FEA320203FB14
:1025F0000667C7F5000707FB06F64FEA54374FEAB0
:10260000D64606F1020607FB066CCCF1005C4FEAE9
:102610001C472CEA074C07FB06F40CFB06F504EB01
:1026200015464FEA961634BF00204FF000404FEA9F
:10263000D13706FB07FC4FEA1C4C0CFB0BF7D21BF7
:1026400003FB0CF761EB07010CFB0EF7B0EB074047
:1026500072EB17420CFB08F734BFA2EB0742B2EB58
:10266000074261EB17414FEA0C444FEA910706FB22
:1026700007FC4FEA1C4C0CFB0BF7B0EBC74072EBAE
:10268000573203FB0CF734BFA2EBC742B2EBC74291
:1026900061EB57310CFB0EF7B0EBC70072EB5772D2
:1026A0000CFB08F734BFA2EBC702B2EBC70261EB29
:1026B0005771039F4FEA816141EA921104EBCC0408
:1026C0004FEAD1374FEA826206FB07FC42EA9012DA
:1026D0004FEA80604FEA1C4C0CFB0BF7D21B03FB4C
:1026E0000CF761EB07010CFB0EF7B0EB074072EB48
:1026F00017420CFB08F734BFA2EB0742B2EB0742CC
:1027000061EB17414FEA8C554FEA910704EB9C248B
:1027100006FB07FC4FEA1C4C0CFB0BF7B0EBC74069
:1027200072EB573203FB0CF734BFA2EBC742B2EB9C
:10273000C74261EB57310CFB0EF7B0EBC70072EBF1
:1027400057720CFB08F734BFA2EBC702B2EBC7020B
:1027500061EB577115EB4C254FEA816141EA92110B
:102760004FEA82624FEAD13742EA901206FB07FC39
:1027700044F100044FEA80604FEA1C4C0CFB0BF75D
:10278000D21B03FB0CF761EB07010CFB0EF7B0EB60
:10279000074072EB17420CFB08F734BFA2EB07426D
:1027A000B2EB074261EB174115EB1C154FEA813183
:1027B00041EA92414FEA823242EA90424FEA803047
:1027C0004FEA0C7644F1000448EA03434EEA0B4812
:1027D0004FF0000EB2EB080C71EB030724BF62460A
:1027E00039464EEB0E0E4FF0000B00185241494196
:1027F0004BEB0B0BB2EB080C71EB03077BF1000BFF
:1028000024BF624639464EEB0E0E4FF0000B001807
:10281000524149414BEB0B0BB2EB080C71EB030738
:102820007BF1000B24BF624639464EEB0E0E51EA97
:10283000020718BF46F0010616EB0E7655F10002AE
:1028400054F1000103D5BDE88901BDE80088BDE869
:102850008901BDE80048B619524141EB0101A3F1DD
:102860000103704780807F7E7D7C7B7A79787776E4
:1028700076757473727171706F6E6E6D6C6C6B6A5D
:102880006A696868676666656464636362616160FB
:10289000605F5F5E5E5D5D5C5C5B5B5A5A59595878
:1028A00058575756565555555454535352525251E2
:1028B000515050504F4F4F4E4E4D4D4D4C4C4C4B38
:1028C0004B4B4A4A4A49494948484847474747467F
:1028D00046464545454444444443434343424242BB
:1028E00042414141002B9C4630D477002BD01CB58F
:1028F0004FEA370703B44FF010004FF01001BAF160
:10290000000F06D0BCF1000FDCBF40F0080040F023
:1029100008014FF000000FBCBDE810400BF1010BA7
:10292000BBF1010F08BF5FEA170722BF12F10102D6
:1029300011F101014FF0004143F1000300F00040AC
:1029400043EA00007047F9D35708D0E746EA064645
:1029500013F1400F4FEA16461FDD13F1200FDFBFC2
:1029600016430A46002120335B42BED0C3F1200744
:1029700046EA064602FA07F74FEA164646EA07060F
:10298000C3F1200722FA03F201FA07F721FA03F153
:102990004FF0000342EA0702A7E746EA020646EACA
:1029A00006464FEA164646EA0106BCBF46EA064618
:1029B000360C4FF000034FF000024FF0000194E797
:1029C0002DE9804C9A46934670B491E8380007C8C8
:1029D00031EA400C48BF34EA430C03D5FFF7E6FD6B
:1029E000FFF780FFF0BCBDE8008C2DE9804C9A46D3
:1029F000934670B491E8380007C810F0804F08BFC4
:102A000013F0804F03D100F005F8FFF76BFFF0BC27
:102A1000BDE8008C20F07F4780EA030023F07F4C64
:102A200007EB0C03A3F57C5300F00040A3F1FE0379
:102A300092F0000F00F0B38095F0000F00F0778067
:102A40002DE901494FEA11404FEA144621EA0048B6
:102A500000FB06FC24EA064708FB06F607FB08F81D
:102A600000FB07F718EB06484CEB164C4FEA124BED
:102A700018EB07484FEA15464CEB174022EA0B4E7D
:102A80000BFB06FC25EA06470EFB06F607FB0EFECF
:102A90000BFB07F71EEB064E4CEB164C4FF00006F7
:102AA0001EEB074E4CEB174B18EB0B0840F10000E8
:102AB00018EB0E0B58EB000840F100008F1A4FF096
:102AC00000013CBFC943661B14BFB5EB040C0021D9
:102AD0003CBFC943F61B4FEA17444EEA8E0E27EA65
:102AE00004454FEA1C4704FB07622CEA074C05FB30
:102AF00007F70CFB05F604FB0CFC16EB074642EB54
:102B0000174216EB0C4642EB1C421BEB060658EB39
:102B10000202414146EA9E0601D5BDE80189B61987
:102B2000524141EB0101A3F10103BDE801894FEAE4
:102B300014454FEA114724EA054621EA074C05FBF4
:102B400007F406FB07F70CFB06F105FB0CFC11EB89
:102B5000074144EB17444FEA124711EB0C4144EB99
:102B60001C4422EA074C05FB07F206FB07F70CFBA7
:102B700006F605FB0CFC16EB074642EB174216EB7C
:102B80000C4642EB1C456A1854F1000148BF7047DF
:102B9000B619524141EB0101A3F10103704795F0D1
:102BA000000F37D04FEA11424FEA144721EA02469C
:102BB00024EA074C02FB07F106FB07F70CFB06F4BF
:102BC00002FB0CFC14EB074441EB17414FEA15479D
:102BD00014EB0C4441EB1C4125EA074C02FB07F5C2
:102BE00006FB07F70CFB06F602FB0CFC16EB074690
:102BF00045EB174516EB0C4645EB1C42121951F1FB
:102C0000000148BF7047B619524141EB0101A3F1E1
:102C1000010370474FEA14454FEA114724EA05467D
:102C200021EA074C05FB07F106FB07F70CFB06F250
:102C30004FF0000605FB0CFC12EB074241EB17417D
:102C400012EB0C4251EB1C4148BF7047921841EB0C
:102C50000101A3F1010370470000000010B501F06D
:102C6000C5F8BDE8104000F07FBF000025482021D6
:102C7000C0F8A011D0F8A01111F0200F05D000BFAE
:102C8000D0F8A01111F0400FFAD00221C0F80411C1
:102C90000022C0F8A821C0F8AC210121C0F80C1115
:102CA0000B23C0F88430AA23C0F88C304FF0550CA9
:102CB000C0F88CC0C0F88010C0F88C30C0F88CC050
:102CC000D0F8881011F0806FFAD00321C0F880107E
:102CD000C0F88C30C0F88CC0D0F8881011F0407F5C
:102CE000FAD00521C0F808110749C0F8C410C0F88F
:102CF000C821016843F23A0221F470411143016096
:102D00007047000000C00F40DE8728040FE008482D
:102D100000F06AF808B9012000E0002004462146CE
:102D2000034800F058F84FF47A7000F073F9EEE7BA
:102D30009013001070B504460D462E4600BF00BF2C
:102D40002068401C20B9242207A116A000F03EFFF5
:102D500000BF1EB1E1686068086002E02169606838
:102D6000086000BF70BD00006D6265642F54415261
:102D70004745545F4C5043313736382F5441524702
:102D800045545F4E58502F5441524745545F4C5064
:102D900043313736582F6770696F5F6F626A6563BA
:102DA000742E68006F626A2D3E70696E20213D208E
:102DB0002850696E4E616D65294E430070B504461A
:102DC0000D4618212046FDF729FD2946204600F032
:102DD000D5FD204670BD70B504460D4629462046F7
:102DE000FFF7A8FF204670BD10B5044600BF00BF26
:102DF00000BF00BF00BF2068401C20B92C2207A1E3
:102E000015A000F0E3FE00BF60690068616808403B
:102E100008B1012010BD0020FCE700006D62656470
:102E20002F5441524745545F4C5043313736382F69
:102E30005441524745545F4E58502F5441524745D4
:102E4000545F4C5043313736582F6770696F5F6F4E
:102E5000626A6563742E68006F626A2D3E70696EE7
:102E600020213D202850696E4E616D65294E43003A
:102E7000007B704770B506460D46154803F06CFAA6
:102E800014480468F4B1A068C8B12A463146FDF779
:102E900048FCA0B9A068FDF725FCA8420FD10C485A
:102EA0000168002904BF011D0160001D814204D09A
:102EB00059220949094800F089FE204670BD64681E
:102EC000002CE0D1024803F047FA002070BD00005A
:102ED0006C01001068010010DC660000C86600008C
:102EE00010B50446406828B1FFF7C2FF012804BFAF
:102EF000606810BD002010BD10B50446406810B1D8
:102F0000FFF7B6FF08B1002010BD6068002818BFA9
:102F1000001F10BD4068002818BF0120704710B581
:102F20004068002808BF10BDFFF7A2FF00280CBFB3
:102F30000120002010BD0068704710B50446002035
:102F40002060606008782F280DD1487858B14B1C5C
:102F500000212360226810782F2806D038B1501C39
:102F6000491C2060F6E7204610BD501C2060184622
:102F7000FFF780FF6060204610BD70B504460D4627
:102F80002946206801F060F870BD10B5044620683D
:102F900001F046F810BD000010B504460020A06006
:102FA000E0602061606104F108006060201D01F0B4
:102FB00001F82060206810B902A000F064FC2046EF
:102FC00010BD00004572726F7220696E697469618C
:102FD0006C697A696E6720746865206D75746578B0
:102FE000206F626A6563740A0000000010B5044631
:102FF000206801F001F8204610BD10B5002444619E
:103000000BB9012400E0002480F82C408183426247
:10301000836210BD10B50446204600F0E9FE10BDE5
:103020002DE9F04104460F464FF0FF3104F1400016
:10303000FFF7A3FF606930B104F14000FFF7A5FF7F
:103040008020BDE8F0812748A061A06A70B9616A5C
:103050008908880000F0F4F8A06200BFA06A20B9D7
:10306000562221A127A000F0B1FD00BF002004E0FE
:103070002D4AA16A41F82020401C616AB0EB910FF3
:10308000F6D3251DB84645450BD0284603F0AEF9CA
:1030900000BF00BF2E1E04D04146304603F098F911
:1030A000064600BF214604F1180001F067F8606190
:1030B000606988B994F82C0020B1A06A00F0BBF8D0
:1030C0000021A16204F14000FFF75FFF04F130002E
:1030D00000F094F88120B4E704F14000FFF755FFB9
:1030E0000020AEE72D3100006D6265642D72746FB3
:1030F000732F72746F732F5468726561642E6370DE
:10310000700000005F7468726561645F6465662EBC
:10311000737461636B5F706F696E74657220213DBB
:10312000204E554C4C000000A52E5AE22DE9F041EE
:10313000064635462F1D3C4600BF00BF00BFE06875
:1031400028B940F28F220C490C4800F03FFD00BF27
:10315000E06801682046884700BF00BF4FF0FF319C
:1031600005F14000FFF709FF0020686105F130001C
:1031700000F044F8BDE8F0813D67000038670000CA
:1031800070B504464FF0FF3104F14000FFF7F5FE43
:10319000666904F1300000F031F8002060613046CB
:1031A00001F012F8054604F14000FFF7EEFE284654
:1031B00070BD000010B504460F4820602046FFF7A0
:1031C000DFFF94F82C0020B1A06A00F034F8002151
:1031D000A16204F14000FFF709FFA0F1400404F1EF
:1031E000300000F021F8A0F13004201D03F0FEF8BB
:1031F000041F204610BD0000C066000010B5044644
:10320000206800F06FFF10BD70B504460D46002029
:10321000A060E06004F1080060602946201D00F015
:1032200029FF2060204670BD10B50446206800F0DC
:1032300045FF204610BD002808BF7047FDF729B99B
:1032400010B5FDF74EF8040004BF02A000F01BFB10
:10325000204610BD4F70657261746F72206E657785
:103260005B5D206F7574206F66206D656D6F727980
:103270000D0A0000490050EAC12018BF04204A0D81
:1032800018BF40F0010040F2FF72B2EB515F08BF7F
:1032900040F00200012808BF052070472DE9F041E9
:1032A0000A4D0E4607462C682868B0F1805F07D2A9
:1032B00021466C06C4222046FDF77EFA204628608F
:1032C00004EB87000664BDE8F081000008ED00E033
:1032D00001207047EFF314807047EFF305807047CB
:1032E000EFF31080704700002DE9F0411A491B48A8
:1032F000FFF764FD1849891C1948FFF75FFD16495F
:10330000C91C1848FFF75AFD174C00254FF40066FA
:103310002F46164820600021201D03F041F8041FAD
:10332000002104F13000FFF76FFFA0F1300404F139
:103330004000FFF731FEA0F140043B4632462946EB
:103340002046FFF75AFE00BFA046094A09494046F9
:10335000FFF7BEFFBDE8F08132C0092078130010EE
:1033600090130010A8130010C0130010C0660000D6
:1033700000000000B5310000074810B5007848B1E2
:1033800002F060F930B1054900EB400001EB40105C
:10339000603810BD024810BDED000010180D00107F
:1033A0001814001002486A4620F007007047000019
:1033B0007B150010F0B503460E4602F0004030B118
:1033C00022F00040C01D20F00702102503E0D01CB1
:1033D00020F003020C250AB90120F0BD5019B042BB
:1033E00001D90120F9E7591919609F195F609A60A6
:1033F000BF1A05E08C18BC4200D902E00C602146DF
:10340000F8E700BF0020086000BFE6E730380A2870
:1034100001D201207047002070470000054909785B
:10342000002905D000684FF6FF71DFF80CC000DFFF
:1034300070470000ED0000101D4D000070B5094CF4
:10344000054660690C2802D307A000F01CFA0D485D
:10345000616900EB0110491C2860616101F0C6FB45
:10346000012070BD200100104E6F7420656E6F75D5
:103470006768207374646C6962206D757465786523
:10348000730A0000B812001004490978002903D01B
:103490000068DFF80CC000DF70470000ED0000108E
:1034A000014C000010B500F0A2FC10BD0328BCBF09
:1034B000002070470749002201EB800151F80C0CF5
:1034C00041F80C2C002804BF4FF0FF307047016812
:1034D00049680847840100100328BCBF00207047DA
:1034E000064901EB800050F80C0C002804BF4FF097
:1034F000FF307047016889690847000084010010A7
:103500000328BCBF01207047064901EB800050F83A
:103510000C0C002804BF4FF0FF3070470168C968E9
:1035200008470000840100102DE9F0430E4683B0E7
:1035300081466B49FDF79AF96B4D6A4C6F1E20B3BB
:103540006A494846FDF792F900282ED06849484656
:10355000FDF78CF9002838D0664C2068002804BF9D
:10356000201D2060251DA84204D0592262496348CD
:1035700000F02CFB2168624F002400BF57F82400A4
:1035800098B3641C102CF9D332E0206848B92A465D
:1035900039465C4802F05AF94FF41651594802F086
:1035A00073F803B00020BDE8F083206848B92A46CC
:1035B0003946544802F04AF94FF41651514802F086
:1035C00063F803B00120BDE8F083206848B92A46BB
:1035D00039464C4802F03AF94FF41651494802F086
:1035E00053F803B00220BDE8F083FFE7102C11D39D
:1035F0004048002904BF011D01600068A84204D0B2
:1036000059223D493D4800F0E1FA03B04FF0FF3048
:10361000BDE8F0834FF0FF3047F82400354800291B
:1036200004BF011D01600068A84204D0592232493C
:10363000324800F0CBFA99F800004FF000083A2821
:1036400010D049466846FFF778FC6846FFF762FCF1
:10365000A0B36846FFF763FC0028684609D0FFF76F
:103660004BFC23E06A4628A14846FCF72FFF009850
:103670001CE0FFF735FC08B316F0020F18BF022557
:1036800023D000BF16F00C0F18BF45F4007516F0DC
:10369000040F18BF45F4806506466846FFF74BFCEB
:1036A000014630682A4683683046984700281FBF85
:1036B00047F82400E01C03B0BDE8F08347F82480FD
:1036C00003B04FF0FF30BDE8F08316F0040F18BFD1
:1036D0000125D7D116F0080F14BF09250025D1E721
:1036E00008640000D000001003C009200F6400002F
:1036F00017640000C8000010DC660000C866000007
:1037000084010010D80000103A2570000328BCBFC7
:1037100000207047064A02EB800050F80C0C00288D
:1037200004BF4FF0FF30704702681369002218474A
:103730008401001070B514460E46032818DA1448A8
:10374000006848B9134A1448511E02F07FF84FF43C
:103750001651114801F098FF0025002C06D9715D23
:103760000D4802F099F96D1CAC42F8D820460DE0E6
:103770000A4901EB800050F80C0C002804BF4FF000
:10378000FF3070BD01680B6831469847201A70BD44
:10379000D000001003C00920D800001084010010E0
:1037A00070B5EFF31080012121EA000080F00105DF
:1037B00072B60D4C6068002808BF25706068B0F1D3
:1037C000FF3F04D13322094909A000F0FFF96068E6
:1037D00028B125B9372205490FA000F0F7F9606834
:1037E000401C606070BD000060010010D4680000E3
:1037F000696E746572727570745F656E61626C6516
:103800005F636F756E746572203C2055494E54336A
:10381000325F4D4158000000696E746572727570B8
:1038200074735F64697361626C65640010B50E4CFB
:103830006068002808BF10BDEFF31080012121EA65
:10384000000090F0010F04D14822084908A000F0C0
:10385000BDF96068401E60606068002806BF20787F
:10386000002810BD62B610BD60010010D4680000D1
:10387000696E74657272757074735F646973616286
:103880006C65640070470FB410B503A9029800F08E
:1038900083FA012000F000F804460848FCF7FFFE18
:1038A0000748FCF7FCFE00F09FFA002818BF01F063
:1038B000E5FE002C18BF00F0B3F9FEE7CC140010B1
:1038C0002015001070B5044600680D46B0F1FF3FAA
:1038D00004D12C2209490AA000F078F945B1012D44
:1038E00018BF70BDA068016862681143016070BDB7
:1038F000A068016862689143F8E70000586700001B
:103900006F626A2D3E70696E20213D202850696EDD
:103910004E616D65294E430070B50C460546016049
:10392000B1F1FF3F08BF70BD0021204600F0DCFC74
:1039300004F01F00012101FA00F0686024F01F006C
:1039400000F11801E960091D296108396961A86061
:1039500070BD70B5032605460C46FFF7DDFFB4F1D8
:10396000FF3F08BF70BD00212846FFF7ABFF31467F
:103970002846BDE8704000F059B8000070B50D460B
:1039800004460226FFF7C8FFB5F1FF3F08BF70BD30
:103990002068B0F1FF3F04D124220849084800F014
:1039A00015F921696068086001212046FFF78AFF48
:1039B00031462046BDE8704000F038B8B0670000DE
:1039C000143A00002DE9F04104460E460227154640
:1039D000FFF7A2FFB6F1FF3F08BFBDE8F081206806
:1039E000B0F1FF3F04D1242209490AA000F0EEF80B
:1039F0006068002D14BFE16821690860012120463C
:103A0000FFF760FF39462046BDE8F04100F00EB8F0
:103A1000B06700006F626A2D3E70696E20213D2004
:103A20002850696E4E616D65294E4300006800F0B4
:103A300089BCFEB504460E4604B12EB1802000902C
:103A40009DE8070003B0F0BD2078012804D0802055
:103A500000909DE80700F5E701A9204600F040F836
:103A60000546042D04D0002000909DE80700E9E7FA
:103A7000102000909DE80700E4E770B504460E466C
:103A8000154604B10DB1802070BD2078012801D009
:103A90008020F9E7204600F007FF08B98120F3E70E
:103AA0003146204600F04BF80020EDE770B50546A2
:103AB000284600F076FE04460CB9802070BD2078C0
:103AC000022801D08020F9E760884FF6FF71884214
:103AD00001D18120F2E7204600F03CF80020EDE71C
:103AE00070B505460E462C46A08930B3618904F1B5
:103AF000100050F8210030606078022805D10021C4
:103B0000204601F0B9F901F0A5F900BF04F10C005D
:103B1000D0E85F0F401E81B204F10C00C0E8521FD4
:103B2000002AF3D16089401C80B26081E18988421B
:103B300001D100206081042070BD0020FCE770B539
:103B400004460D4626462946304601F095F901F017
:103B500081F970BD70B5044625460021284601F064
:103B60008BF901F077F970BD1FB501211348FFF7FC
:103B700032F91349684602F013FC04462146114805
:103B8000FFF74EFA05466C46E06818B1E0688168B8
:103B90002046884700BF00BF0FE00B48FFF724F91D
:103BA00008B9012000E00020044621460648FFF73E
:103BB00012F94FF4FA70FFF72DFAEEE7A813001090
:103BC0000D2D0000C01300107813001070B51446BE
:103BD0000D460646FFF7E4FD23462A46314603A07C
:103BE00000F0AEF8BDE8704000F01AB86D62656490
:103BF000206173736572746174696F6E20666169A8
:103C00006C65643A2025732C2066696C653A202522
:103C1000732C206C696E65202564200A000000006A
:103C200098B0FFF7BDFD3B496846FFF7A7FE3A494C
:103C300006A8FFF7A3FE39490CA8FFF79FFE3849F5
:103C400012A8FFF79BFE0098B0F1FF3F04D1242299
:103C5000344935A0FFF7BAFF039901980860069828
:103C6000B0F1FF3F04D124222E492FA0FFF7AEFF71
:103C70000A99079808600C98B0F1FF3F04D12422FC
:103C8000284929A0FFF7A2FF10990D980860129803
:103C9000B0F1FF3F04D12422224923A0FFF796FF71
:103CA000159913980860962002F01CFB0098B0F15B
:103CB000FF3F04D124221B491BA0FFF787FF049973
:103CC000019808600698B0F1FF3F04D124221549FD
:103CD00015A0FFF77BFF0999079808600C98B0F1D1
:103CE000FF3F04D124220F490FA0FFF76FFF0F9968
:103CF0000D9808601298B0F1FF3F04D124220949C1
:103D000009A0FFF763FF169913980860962002F048
:103D1000E9FA98E732C0092034C0092035C00920EB
:103D200037C00920B06700006F626A2D3E70696E6F
:103D300020213D202850696E4E616D65294E43005B
:103D40000FB470B5A0B025AC249DFFF729FD224625
:103D500029466846FCF7A8FB051E10DD0B480068E5
:103D600020B90B4A0B48511E01F070FD00246E462D
:103D70000848315D01F090FE641CAC42F8DBFFF7AF
:103D800055FD20B070BC5DF814FB0000D0000010A1
:103D900003C00920D800001070B5A0B00C4605463D
:103DA000FFF7FEFC224629466846FCF77DFB051E10
:103DB00010DD0A48006820B9094A0A48511E01F07E
:103DC00045FD00246E460748315D01F065FE641C28
:103DD000AC42F8DBFFF72AFD20B070BDD000001028
:103DE00003C00920D800001001F040BC70477047A4
:103DF00010B50446FFF774FA10B9FFF76EFA08B170
:103E0000822010BD00BF2046DFF808C000DF00BFE1
:103E1000F7E70000295C000010B5FFF761FA10B960
:103E2000FFF75BFA08B1822010BDFFF753FA00F0EC
:103E3000010010B901F006FFF6E700BFDFF808C087
:103E400000DF00BFF0E70000455C000010B5FFF7A1
:103E500047FA38B9FFF741FA20B9FFF73BFA00F00B
:103E6000010010B90448007810BD00BFDFF80CC095
:103E700000DF00BFF8E70000ED000010BD5C0000AF
:103E800000B589B0FFF72CFA10B9FFF726FA10B188
:103E9000822009B000BDFFF7D9FF50B93248006851
:103EA00038B131480068406818B12F49096848683E
:103EB0008047FFF70FFA00F0030030B1012828D047
:103EC000022828D0032848D13FE009A880F30988B8
:103ED00000BF2648007800F0010020B1022080F3E6
:103EE000148800BF04E0032080F3148800BF00BFE3
:103EF00000BF00BF00BFBFF34F8F00BF00BF00BFB8
:103F000000BF00BF00BFBFF36F8F00BF00BF00BF87
:103F100023E0FF20BDE71548007800F0010098B9C4
:103F2000032080F3148800BF00BF00BF00BFBFF3B1
:103F30004F8F00BF00BF00BF00BF00BF00BFBFF377
:103F40006F8F00BF00BF00BF07E00848007800F097
:103F5000010008B1FF209CE700BF00BF00BFDFF8F1
:103F600010C000DF00BF94E7F80000105C6500009F
:103F7000C95C000030B589B004460D46FFF7B0F9C2
:103F800010B9FFF7AAF938B129462046FFF751FDCD
:103F900006AB07C309B030BD00BF29462046DFF895
:103FA00010C000DF8DE8070003AB07C3F2E7000095
:103FB000655D000010B50446FFF792F910B9FFF7F0
:103FC0008CF908B1002010BDFFF784F900F0010062
:103FD00030B90748007818B9204601F0EEFEF2E744
:103FE00000BF2046DFF80CC000DF00BFEBE7000099
:103FF000ED000010BB5D000010B50446FFF770F93E
:1040000010B9FFF76AF908B1822010BD00BF204641
:10401000DFF808C000DF00BFF7E70000F15D000037
:1040200010B50446FFF75CF910B9FFF756F908B16F
:10403000822010BD00BF2046DFF808C000DF00BFAF
:10404000F7E70000175E000070B505460C46FFF765
:1040500047F910B9FFF741F908B1822070BD00BFE0
:1040600021462846DFF808C000DF00BFF6E7000061
:10407000475E000070B505460C46FFF731F910B9F0
:10408000FFF72BF908B1002070BDFFF723F900F00E
:10409000010038B90748007820B92146284601F0C8
:1040A000F5FEF1E700BF21462846DFF80CC000DF2F
:1040B00000BFE9E7ED0000108D5E000010B504467A
:1040C000FFF70EF910B9FFF708F908B1822010BD0B
:1040D00000BF2046DFF808C000DF00BFF7E70000A0
:1040E000D75E000010B50446FFF7FAF810B9FFF7E5
:1040F000F4F818B12046FFF7D9FC10BD00BF2046E8
:10410000DFF808C000DF00BFF7E70000FD5E000039
:104110002DE9F04106460C461546FFF7E1F810B9C7
:10412000FFF7DBF810B10020BDE8F081FFF7D2F80F
:1041300000F0010040B90E48007828B92A4621460F
:10414000304601F0F5FEEFE74FF0FF310948006817
:10415000FFF77AFF00BF2A4621463046DFF818C035
:1041600000DF074603480068FFF75AFF3846DBE7E1
:10417000ED000010E8000010315F000070B504464B
:104180000D46002229462046FFF7C2FF70BD000001
:104190004FF0FF3109480068FFF756FF00BFDFF816
:1041A00020C000DF0446204601F058FF254628467F
:1041B000DFF810C000DF00BFFEE70000E8000010DD
:1041C000D15F0000ED5F000070B50546FFF788F88D
:1041D00010B9FFF782F808B1822070BD4FF0FF31AF
:1041E00009480068FFF730FF284601F037FF00BF9D
:1041F0002846DFF818C000DF044600BF0248006808
:10420000FFF70EFF2046E8E7E8000010ED5F000032
:104210001FB5044600BF2046DFF810C000DFCDE91F
:104220000001CDE9020104B010BD000031600000C2
:1042300086B000BF4FF0FF310A480068FFF79AFED2
:1042400001AB07C301981028F4D10298FFF7E0FFF3
:10425000CDE9040104980028ECD0DDE9041088477A
:10426000E8E700002401001070B5044601F0B0FE3C
:1042700005462A46214602A0FFF705FB70BD000057
:10428000525458206572726F7220636F64653A20D1
:104290003078253038582C207461736B2049443AAB
:1042A000203078253038580A0000000010B501F0A1
:1042B000D5F910BD00BF094800684FF0E021486102
:1042C00000208861072008610548006840F07F40B1
:1042D0000349086000BF4817704700005865000098
:1042E00020ED00E07047000070B50D460446B0F1C7
:1042F000FF3F04D115220D490DA0FFF767FCA4F183
:104300000050A0F51C2001090007C20E880000F132
:10431000804000F5303001680323934099430160E9
:10432000016805FA02F21143016070BD20680000C7
:1043300070696E20213D202850696E4E616D65299F
:104340004E43000070B50C460546B0F1FF3F04D166
:1043500020221A491AA0FFF739FCA5F10050A0F558
:104360001C204209920002F1804202F5303200F036
:104370001F03D2F868C0C4F3800101FA03F32CEAEA
:10438000030CC2F868C0D2F868C04CEA0303936615
:10439000002918BF70BD02090007C10E900000F18E
:1043A000804000F53030026C03238B409A43026456
:1043B000026C04FA01F11143016470BD2068000031
:1043C00070696E20213D202850696E4E616D65290F
:1043D0004E4300000A68B2F1FF3F09D00A688242EA
:1043E00001D14868704751F80C2FB2F1FF3FF5D169
:1043F0004FF0FF3070470000884208BF7047B0F1AF
:10440000FF3F04BF0846704710B5B1F1FF3F08BF3A
:1044100010BD03A0FFF737FA4FF0FF3010BD0000CA
:1044200070696E6D6170206D69732D6D6174636864
:104430000000000010B5B0F1FF3F08BF10BD0A68D2
:10444000B2F1FF3F0CD00A68824204D14C68B4F14B
:10445000FF3F0AD106E051F80C2FB2F1FF3FF2D135
:104460004FF0FF3402A0FFF70EFA204610BD000007
:1044700070696E6D6170206E6F7420666F756E640A
:1044800020666F72207065726970686572616C0079
:1044900010B50446B0F1FF3F08BF10BD0868B0F189
:1044A000FF3F11D00868A04209D189682046FFF774
:1044B0001BFF2046BDE810400221FFF743BF51F823
:1044C0000C0FB0F1FF3FEDD1BDE8104001A0FFF7A8
:1044D000DAB90000636F756C64206E6F74207069C8
:1044E0006E6F75740000000010B50648FFF762FD9E
:1044F000054A1061D2E90B01FBF766FEBDE81040EA
:10450000FEF7ACBB9C65000020010010014600BF17
:1045100051E8000F10B9BFF32F8F04E0036841E8A2
:104520000032002AF4D100BF7047000070B5044685
:104530000D4694B14FF6FF70844204D207490868D3
:10454000214600F0D7FC054800684570044800F09B
:104550000FF90646304600F00DFE70BD1001001048
:10456000B402001010B51248006812494968884228
:104570000BD0104840680E4908600846C0880E49B4
:1045800009880844401E0A498880094880880A49E9
:10459000098889B288420AD1002005490860054887
:1045A00000F0E6F804462146024800F0D1FC10BDB8
:1045B00000010010B40200101801001010B52048CE
:1045C000C06800B910BD1E48808A401E1C49888200
:1045D0002CE01B48C468A06858B1D4E901014860C8
:1045E000606820B1D4E9011088600020606000207C
:1045F000A0602146134800F0ABFCA08A10498882D5
:104600006078042804D1E08A0F4909880844A08210
:10461000012060700A49E068C860E06820B108467F
:10462000E16808610020E060002020610448808A81
:1046300018B90348C0680028CBD100BFC2E700000A
:10464000CC020010B40200101801001010B504468E
:104650003CB9104800F08CF80446204600F08AFD72
:1046600017E0A0780C490968897888420BDD0A496F
:10467000086800F08DFC0120074909684870204651
:1046800000F078FD05E0012060702146014800F04F
:104690005FFC10BDB40200101001001010B50446FC
:1046A00003212046FFF742FF10BD000070B504460D
:1046B0000E46208B30432083658B6078062804D11A
:1046C000208B2840A84200D10AE06078052818D144
:1046D000208B2840A8B1608B218B0840608300BFED
:1046E000208BA8432083204600F084FC01206070CA
:1046F000628B0821204600F075FC2146014800F03D
:1047000027FC70BDB40200100246914202D35068EB
:10471000884201D80120704700BF00BF10680860C0
:1047200000BF00BF00BFBFF35F8F00BF00BF00BF6F
:1047300052E8003F08689842F0D142E80010002893
:10474000EBD100BFE7E70000012107E0481E064A61
:1047500052F8200008B908467047491C03480088F1
:104760008142F3D90020F7E78C090010446500006E
:104770000146486842684A600A78022A05D00A78E9
:10478000012A02D00A78032A08D142681AB1426885
:104790009160002242600022826001E000224260BB
:1047A0007047014601F0030008B100207047084639
:1047B000FCE7000070B504460D4616460020207048
:1047C00001206070A57084F8245000206060A06013
:1047D000E06020612062A082E0822083608384F810
:1047E0002500A06A18B90448FFF790FE20633146FF
:1047F000204600F00FF870BDF806001000200349B5
:10480000086003480088C88070470000000100105D
:104810004C65000070B502460C46956AAB081BB9A2
:104820001F4D2D88C5F38D03156B05EB830000F03C
:10483000040505B1001F40384FF08075C5638463DF
:10484000002103E0002540F82150491C0E29F9D32E
:10485000D5690562D0625463D578022D1FD0114D01
:10486000166B35600E4D2D6805F08055BDB1112BCE
:1048700015D9A3F110050126C6EB550105E008384E
:104880004FF0CC3545600560491E0029F7D1051F62
:104890002846166BB54202D94FF0CC35056070BD85
:1048A00048650000A52E5AE201460A46D089938940
:1048B000C01A70470A46014601230B7000234B7053
:1048C0008B704B600B814B818B81A2F11003C3F382
:1048D0008F03CB81704700002DE9F04104460E465E
:1048E0006068002861D06078012849D0022819D07A
:1048F000032858D13046FFF709FE074607B953E0B1
:104900002046FFF735FF05463946284600F064FB90
:1049100001206870284600F06DFB2946354800F0FC
:1049200017FB41E02046FFF723FF054600212846FC
:1049300000F052FB228904F11000E96940F82210CE
:1049400000BF04F10C00D0E85F0F401C81B204F1FD
:104950000C00C0E8521F002AF3D12089401C80B20D
:104960002081E189884201D10020208101206870E6
:10497000284600F03FFB29461E4800F0E9FA13E004
:104980002046FFF7F5FE054632461021284600F086
:1049900029FB01206870284600F02CFB29461548A9
:1049A00000F0D6FA00E000BF22E0A089E189884249
:1049B0001BDA218904F1100040F8216000BF04F1E6
:1049C0000C00D0E85F0F401C81B204F10C00C0E87D
:1049D000521F002AF3D12089401C80B22081E18936
:1049E000884205D10020208102E00320FFF73CFC33
:1049F000BDE8F081B40200102DE9F041054688467B
:104A000016462C46A089002842D0618904F1100086
:104A100050F82100C8F800006089401C80B2608115
:104A2000E189884201D100206081606800B360782C
:104A300002281DD12046FFF79BFE0746002138467D
:104A400000F0CAFA228904F11000F96940F8221036
:104A50002089401C80B22081E189884201D1002058
:104A60002081384600F0C6FA3846FFF7EFFD0CE02B
:104A700000BF04F10C00D0E85F0F401E81B204F1CA
:104A80000C00C0E8521F002AF3D10020BDE8F081DD
:104A90000EB90120FAE7606828B10C480168204689
:104AA00000F056FA0BE009480068606000200749F2
:104AB000096848600548006884600120607008212A
:104AC0003046FFF733FD0120E0E700001001001041
:104AD000014609B900207047481C10B94FF6FF7015
:104AE000F9E70C48814202D94FF6FE70F3E70A4815
:104AF00000684FF47A7303FB0100401E064B1B68ED
:104B0000B0FBF3F24FF6FE70824200D9E3E790B2B9
:104B1000E1E7000000093D00686500002DE9F04173
:104B200080464646708800282BD0B468256AB54276
:104B300002D1F06820620AE006E0E868B04202D1E3
:104B4000F068E86002E0ED68002DF6D100BF94F84F
:104B50002470256A08E0686828B168688078B842DF
:104B600001DD68688778ED68002DF4D1A078B8423F
:104B700007D0A7701B480068A04202D0204600F072
:104B800011FA10E03046FFF7F3FD044600212046FD
:104B900000F022FA204600F02DFA01206070214634
:104BA000114800F0D5F970680028EBD10E48406834
:104BB00098B10D48406880780A4909688978884228
:104BC0000BDD08480168084800F0C2F901200549DA
:104BD000096848700020FFF739FD00203070BDE8FB
:104BE000F081000010010010B40200100146032201
:104BF0000A7000224A804A608A60CA6070470000DA
:104C00002DE9F04107463C46608820B14149A06843
:104C10000968884202D0FF20BDE8F0816088401E0C
:104C200080B2608008B10020F6E73A480068056A63
:104C3000A54204D13749E068096808620AE006E045
:104C4000E868A04202D1E068E86002E0ED68002D6B
:104C5000F6D100BF2F48006890F824802D480068E6
:104C6000056A09E0686830B168688078404502DD0F
:104C7000686890F80280ED68002DF3D1254800683F
:104C800080F80280606870B32046FFF771FD064629
:104C90000021304600F0A0F9304600F0ABF90120C9
:104CA0006080A660306AE06034621A4800688078EC
:104CB000194949688978884203DB3046FFF7C6FC0A
:104CC00026E014480168144800F042F931461248C1
:104CD00000F03EF901200F4909684870707000200B
:104CE000FFF7B4FC14E0FFE70B48406880780949FF
:104CF0000968897888420BDD06480168064800F09B
:104D000027F901200349096848700020FFF79EFC3D
:104D1000002081E710010010B402001070B50546B4
:104D20000E462C46608850B91F480068A0601E4897
:104D30000068006AE0601C480068046205E01A49E7
:104D4000A0680968884205D100BF6088401C608067
:104D5000002070BD0EB90120FBE7A06880781249E1
:104D600009688978884207DA0F4800688078A16866
:104D70008870A06800F016F9606828B10A480168D8
:104D8000204600F0E5F809E0074800686060002070
:104D90000549096848600448006884600921304674
:104DA000FFF7C4FB0120D4E71001001070B501200B
:104DB0002549096848702449086800F0E9F8234843
:104DC000447832E02148001D50F83450287848B922
:104DD0001E48001D00EBC400808881B22846FFF702
:104DE00065FC0EE02878012808D11848001D00EB6A
:104DF000C40041682846FFF76FFD02E0284600F036
:104E000065F9601C04461149C978884200D1002424
:104E100000BF0E48801CD0E84F0F401EC1B20B48A7
:104E2000801CC0E8421F002AF3D10848807800287F
:104E3000C8D106494C700648FFF79AFC0646304632
:104E400000F098F970BD0000100100100809001072
:104E5000B40200100548007820B94FF08050044992
:104E6000086002E001200349087070470C0100103F
:104E700004ED00E00D0100102DE9F04105460E465D
:104E80001B48C178821C034600BF00BFD2E84F0F09
:104E9000884202D1BFF32F8F18E000F1010C0CF013
:104EA000FF08C2E84C8FBCF1000FEFD100BFD3E880
:104EB0004FCF6046471C8F4200D1002707F0FF0804
:104EC000C3E84C8FBCF1000FF1D100BF0446084885
:104ED000C078A04207D90648001D40F8345000EBC6
:104EE000C400466002E00220FFF7BEF9BDE8F08191
:104EF0000809001070B50C4623461449CD680DB959
:104F0000002205E0114DAA8A0EE0CD684DB900BF20
:104F10000025C560C86001619D1A8D8200258582CB
:104F200070BDC9688D8A2A449A42EED3CD68C560A7
:104F3000C8600161C5680DB1C5682861D51A858250
:104F40008D8A868AAD1B8D8200BFE9E7CC020010F6
:104F500030B50A4600240578022D05D00578012DCC
:104F600002D00578032D00D101249378416801E037
:104F70000846496811B18D789D42F9D2516042606E
:104F80001CB101B18A60906001E00025956030BDE0
:104F900003494968416000218160014948607047C8
:104FA000B402001030B50546A86820B96878012819
:104FB0000FD1084C06E0AC6800E0A4682078002817
:104FC000FBD000BF284600F029F829462046FFF70D
:104FD000BFFF30BDB402001000BFC36A20331A46C1
:104FE0001160704710B500BFC46A203423461960B1
:104FF0005A6010BD016981B1C268CA60C26842B11D
:105000008A8A838A1A448A82C26811610022C26035
:1050100001E000228A82002202617047826842B168
:10502000D0E901235A60426812B1D0E901329A6096
:105030007047064906E04A68824202D142684A60E7
:10504000F6E749680029F6D100BFF1E7B402001085
:1050500070B50646354610E02846FFF789FB044642
:1050600000212046FFF7B8FF2046FFF7C3FF0120CD
:10507000607021460F48FFF76BFF68680028EBD18E
:105080000C48406898B10B48406880780A49096824
:10509000897888420BDD084801680648FFF758FF09
:1050A00001200549096848700020FFF7CFFA002069
:1050B000287070BDB4020010100100100A460146AD
:1050C00002230B7000234B604A80704770B5044682
:1050D000606888B12046FFF74BFB05462846FFF77E
:1050E00089FF0120687001212846FFF775FF2946D6
:1050F0000348FFF72DFF02E06088401C608070BD10
:10510000B402001070B505462C46606870B12046A8
:10511000FFF72EFB064601213046FFF75DFF3046C4
:10512000FFF768FF3046FFF791FA02E06088401C05
:105130006080002070BD000010B50C480068C07889
:10514000022811D009480068C06A08490968096B3B
:10515000884206D305480068006B0068044988420D
:1051600002D00120FFF780F810BD000010010010F0
:10517000A52E5AE210B5044608484460022060702B
:105180000748006840B106480068006920B1044A39
:10519000E06B12681169884710BD00001001001013
:1051A000F800001010B5002404E00020234941F865
:1051B0002400641C224800888442F6D340222148FF
:1051C00001882148FEF7F6F82048008880B240F0B8
:1051D00000421F4801681F48FEF7ECF808221E48ED
:1051E00001881E480068FEF7E5F8FF201C49C870DA
:1051F000002088621B4A00211948FFF7DBFA0420CF
:1052000019490870002048600420184908700020DF
:10521000C860086188821248154908600220096840
:1052200048700F48FFF7A6FF002012490870487029
:1052300011480078C870FFF7E1FA10BD8C09001022
:1052400044650000706500002803001048650000F8
:1052500074650000F8060010986500002C0100102D
:10526000E4020010AD420000B4020010CC020010B5
:1052700010010010080900107865000010B500BF8B
:10528000214A126842F47F021F4B1A601A461268C4
:105290004FF07F4303EA0222D243B2FA82F2C2F114
:1052A0000800194A143A1268C2F30221814200D35D
:1052B000481C154A121F13686FF08072824063F316
:1052C0001702114B1B1F1A6000BFFEF7F3FF0F49B7
:1052D000086008460068002814DBFF210B480068BE
:1052E00000F1E02080F800140848007800F01F0169
:1052F00001208840054909684909890001F1E02138
:10530000C1F8000110BD000020ED00E00801001010
:1053100010B501200C49096848700B490868FFF76F
:1053200037FEFFF71FF909480068401C074908606D
:10533000FFF744F900F098FE0548FFF719FA044614
:105340002046FFF717FF10BD1001001018010010D4
:10535000B4020010014609B90020704701F00300B3
:1053600008B10020F9E70A46107808B10020F4E7F8
:105370001046F2E730B5024600230D4C206807E0E6
:1053800084688C4200D905E08468091B03460068E4
:105390000028F5D100BF1060916018B1846895684D
:1053A000641B84600BB11A6001E0014C226030BDC7
:1053B000F00000102DE9F04780460D4691461F464B
:1053C000E8B200B96D1C1148FFF7A0F8044614B903
:1053D0000020BDE8F087C4F83090280AA062FFF7EB
:1053E000B3F906460EB90020F3E7E670E761A7635C
:1053F000E9B242462046FFF7DDF9701E044941F844
:1054000020402046FFF722F93046E2E7280300104B
:105410008C0900102DE9F041064626B15C48006871
:10542000C078B04251D10020594909684870FAF754
:105430006AFF57490968C862FFF77EFE5448006852
:10544000046A23E06068D0B12046FFF791F9054671
:1054500000212846FFF7C0FD2846FFF7CBFD0120BD
:10546000687029464B48FFF773FDD4F80C80012083
:105470006080A560286AE0602C62444606E0D4F8AB
:105480000C8000206080A060E0604446002CD9D1F0
:1054900000213F480068C078401E3F4A42F8201073
:1054A0003B480068016B3D48FFF72EF90020384962
:1054B00009680863364801683948FFF725F9002074
:1054C00033490860FFF7C2F860E03648008886423A
:1054D00004D8701E304951F8200010B9FF20BDE8F3
:1054E000F081701E2C4951F820703846FFF796FD68
:1054F0003846FFF77FFD3C6A23E06068D0B1204664
:10550000FFF736F9054600212846FFF765FD2846D6
:10551000FFF770FD0120687029461E48FFF718FD4F
:10552000D4F80C8001206080A560286AE0602C62BD
:10553000444606E0D4F80C8000206080A060E06063
:105540004446002CD9D10021701E134A42F8201085
:105550001248396BFFF7D8F80020386339461048F5
:10556000FFF7D2F80B4840688078094909688978C4
:1055700088420BDD0120064909684870044801682B
:105580000448FFF7E5FC0020FFF760F80020A6E7DD
:1055900010010010B40200108C090010F806001071
:1055A000280300104465000070B506460C46D6B9C5
:1055B0002048006884701F48006880F8244000BFBD
:1055C0001D4840688078A0420BDD1A4801681A48DF
:1055D000FFF7BEFC01201749096848700020FFF75B
:1055E00035F8002070BD15480088864204D8701E2A
:1055F000134951F8200008B9FF20F3E7701E104945
:1056000051F82050AC7085F824400A480068A84240
:1056100000D1D5E72846FFF7C5FC6878012806D1F8
:105620000548FFF7A5F805462846FFF70FF80020C4
:10563000D8E7000010010010B4020010446500001B
:105640008C0900100448006808B90020704702481F
:105650000068C078FAE700001001001002E002487C
:1056600000688047FBE700001C010010024800684A
:1056700000F0010070470000F0ED00E084B06946E2
:105680001820ABBE04B070472DE9F05F0D4606460A
:1056900000686349884204DD9B22624962A0FEF7EC
:1056A00095FA3068A0F180416648B1F5404109D0D3
:1056B000B1F5804F11D0B1F50C2F1BD0B1F5102FE3
:1056C00023D02EE0D0F8A81121F0C001C0F8A81115
:1056D000D0F8A81141F0400109E0D0F8A81121F458
:1056E0004071C0F8A811D0F8A81141F48071C0F839
:1056F000A81116E0D0F8AC1121F44031C0F8AC117B
:10570000D0F8AC1141F4803109E0D0F8AC1121F4AB
:105710004021C0F8AC11D0F8AC1141F48021C0F8A0
:10572000AC1149482A014FF0000900684FF0010808
:10573000B0FBF2F1B0FBF2F302FB13028FB2494669
:10574000002A57D001222C464FF0000C924603E06D
:105750004FF0000C002A47D902FB00FB4FF000433A
:1057600013EA4B0F0AD053000CEB020B43430BFB25
:1057700005FBB3FBFBF30AEB131309E093000CEBFF
:10578000020B43430BFB05FBB3FBFBF30AEB531389
:10579000C3F34F03002B08BF0123BCF1000F18BF58
:1057A000022B38BF022300FB02FB0CEB020E0EFBA8
:1057B00003FE4FEACE0EBBFBFEFB0BF1010BD5EB5C
:1057C0005B0B48BFCBF1000BA34507DA5C461F46D5
:1057D0009046E146AB4508BF012105D00CF101031D
:1057E00003F0FF0C9445B7D3521CD2B2102A01D259
:1057F0000029ADD03068017B41F080010173316830
:10580000380A087130680770316849EA081081F871
:1058100028003068017B21F080010173BDE8F09F12
:1058200000C009407868000028696E74296F626AB8
:105830002D3E75617274203C3D20554152545F33BA
:105840000000000000C00F40E00000102DE9F0470C
:1058500088460446174653494046FEF7EBFD054689
:1058600051493846FEF7E6FD01462846FEF7C4FDDD
:105870000546B0F1FF3F04D15C224C494CA0FEF735
:10588000A5F9A5F180414E482560B1F5404104BF1E
:10589000D0F8C41041F0080117D0B1F5804F04BF13
:1058A000D0F8C41041F010010FD0B1F50C2F04BF97
:1058B000D0F8C41041F0807107D0B1F5102F04BFAB
:1058C000D0F8C41041F0007101D1C0F8C4102068B4
:1058D0000126067220684FF00009C0F804904FF4CA
:1058E00016512046FFF7D0FE002003230146024652
:1058F00043EA800040EAC100216840EA02100873D0
:1059000028494046FEF7C4FD27493846FEF7C0FD4A
:10591000B8F1FF3F03D000214046FEF713FDB7F179
:10592000FF3F03D000213846FEF70CFDA5F1804073
:10593000B0F5404008BFC4F804900FD0B0F5804FD8
:1059400008BF66600AD0B0F50C2F08BF022004D053
:10595000B0F5102F08BF032000D1606061684FF0E0
:10596000FF30C1EBC1021749034601EBC202506090
:105970006268C2EBC20201EBC2010246C8610021AB
:10598000204600F0BDF8A5F18040B0F5404018BFBA
:10599000BDE8F0870C480660D4E90012C0E90212A5
:1059A000BDE8F087206400008C6400007868000087
:1059B00028696E74297561727420213D204E430060
:1059C00000C00F40C4010010D000001070B5844624
:1059D000006800240B46A0F180452146B5F54045FE
:1059E00004BF0524274910D0B5F5804F04BF062415
:1059F00025490AD0B5F50C2F04BF0724234904D04C
:105A0000B5F5102F04BF08242149012505FA03F636
:105A100072B14268324342602046FDF73FFC05FA0E
:105A200004F06109890001F1E021C1F8000170BDB5
:105A3000012B11D0DCF80410C1EBC102154901EBB8
:105A4000C20191F8362091F83510CA4218BF70BDD6
:105A5000002B08BF012100D000214268B243426000
:105A6000DCF80000406805FA01F1084218BF70BD7B
:105A700005FA04F06109890001F1E021C1F8800113
:105A800070BD0000296100003D610000516100000F
:105A900065610000C401001070B44268174CC2EB8D
:105AA000C20204EBC2020025D2F81CC0BCF1FF3FC9
:105AB0000AD0166B3668136A1E42F7D103681B7D45
:105AC00013F0400FF2D00BE003681B7D13F0200FA2
:105AD00002D082F8345003E092F83430102BE5D233
